{
	"tryCatch.sol": {
		"Foo": {
			"abi": [
				{
					"inputs": [
						{
							"internalType": "address",
							"name": "_owner",
							"type": "address"
						}
					],
					"stateMutability": "nonpayable",
					"type": "constructor"
				},
				{
					"inputs": [
						{
							"internalType": "uint256",
							"name": "x",
							"type": "uint256"
						}
					],
					"name": "myFunc",
					"outputs": [
						{
							"internalType": "string",
							"name": "",
							"type": "string"
						}
					],
					"stateMutability": "pure",
					"type": "function"
				},
				{
					"inputs": [],
					"name": "owner",
					"outputs": [
						{
							"internalType": "address",
							"name": "",
							"type": "address"
						}
					],
					"stateMutability": "view",
					"type": "function"
				}
			],
			"devdoc": {
				"kind": "dev",
				"methods": {},
				"version": 1
			},
			"evm": {
				"assembly": "    /* \"tryCatch.sol\":61:594  contract Foo {... */\n  mstore(0x40, 0x80)\n    /* \"tryCatch.sol\":185:376  constructor(address _owner) {... */\n  callvalue\n  dup1\n  iszero\n  tag_1\n  jumpi\n  0x00\n  dup1\n  revert\ntag_1:\n  pop\n  mload(0x40)\n  sub(codesize, bytecodeSize)\n  dup1\n  bytecodeSize\n  dup4\n  codecopy\n  dup2\n  dup2\n  add\n  0x40\n  mstore\n  dup2\n  add\n  swap1\n  tag_2\n  swap2\n  swap1\n  tag_3\n  jump\t// in\ntag_2:\n    /* \"tryCatch.sol\":250:251  0 */\n  0x00\n    /* \"tryCatch.sol\":232:252  _owner != address(0) */\n  0xffffffffffffffffffffffffffffffffffffffff\n  and\n    /* \"tryCatch.sol\":232:238  _owner */\n  dup2\n    /* \"tryCatch.sol\":232:252  _owner != address(0) */\n  0xffffffffffffffffffffffffffffffffffffffff\n  and\n  sub\n    /* \"tryCatch.sol\":224:272  require(_owner != address(0), \"Invalid address\") */\n  tag_6\n  jumpi\n  mload(0x40)\n  0x08c379a000000000000000000000000000000000000000000000000000000000\n  dup2\n  mstore\n  0x04\n  add\n  tag_7\n  swap1\n  tag_8\n  jump\t// in\ntag_7:\n  mload(0x40)\n  dup1\n  swap2\n  sub\n  swap1\n  revert\ntag_6:\n    /* \"tryCatch.sol\":300:342  0x0000000000000000000000000000000000000001 */\n  0x01\n    /* \"tryCatch.sol\":290:342  _owner != 0x0000000000000000000000000000000000000001 */\n  0xffffffffffffffffffffffffffffffffffffffff\n  and\n    /* \"tryCatch.sol\":290:296  _owner */\n  dup2\n    /* \"tryCatch.sol\":290:342  _owner != 0x0000000000000000000000000000000000000001 */\n  0xffffffffffffffffffffffffffffffffffffffff\n  and\n  sub\n    /* \"tryCatch.sol\":283:343  assert(_owner != 0x0000000000000000000000000000000000000001) */\n  tag_9\n  jumpi\n  tag_10\n  tag_11\n  jump\t// in\ntag_10:\ntag_9:\n    /* \"tryCatch.sol\":362:368  _owner */\n  dup1\n    /* \"tryCatch.sol\":354:359  owner */\n  0x00\n  dup1\n    /* \"tryCatch.sol\":354:368  owner = _owner */\n  0x0100\n  exp\n  dup2\n  sload\n  dup2\n  0xffffffffffffffffffffffffffffffffffffffff\n  mul\n  not\n  and\n  swap1\n  dup4\n  0xffffffffffffffffffffffffffffffffffffffff\n  and\n  mul\n  or\n  swap1\n  sstore\n  pop\n    /* \"tryCatch.sol\":185:376  constructor(address _owner) {... */\n  pop\n    /* \"tryCatch.sol\":61:594  contract Foo {... */\n  jump(tag_12)\n    /* \"#utility.yul\":88:205   */\ntag_14:\n    /* \"#utility.yul\":197:198   */\n  0x00\n    /* \"#utility.yul\":194:195   */\n  dup1\n    /* \"#utility.yul\":187:199   */\n  revert\n    /* \"#utility.yul\":334:460   */\ntag_16:\n    /* \"#utility.yul\":371:378   */\n  0x00\n    /* \"#utility.yul\":411:453   */\n  0xffffffffffffffffffffffffffffffffffffffff\n    /* \"#utility.yul\":404:409   */\n  dup3\n    /* \"#utility.yul\":400:454   */\n  and\n    /* \"#utility.yul\":389:454   */\n  swap1\n  pop\n    /* \"#utility.yul\":334:460   */\n  swap2\n  swap1\n  pop\n  jump\t// out\n    /* \"#utility.yul\":466:562   */\ntag_17:\n    /* \"#utility.yul\":503:510   */\n  0x00\n    /* \"#utility.yul\":532:556   */\n  tag_29\n    /* \"#utility.yul\":550:555   */\n  dup3\n    /* \"#utility.yul\":532:556   */\n  tag_16\n  jump\t// in\ntag_29:\n    /* \"#utility.yul\":521:556   */\n  swap1\n  pop\n    /* \"#utility.yul\":466:562   */\n  swap2\n  swap1\n  pop\n  jump\t// out\n    /* \"#utility.yul\":568:690   */\ntag_18:\n    /* \"#utility.yul\":641:665   */\n  tag_31\n    /* \"#utility.yul\":659:664   */\n  dup2\n    /* \"#utility.yul\":641:665   */\n  tag_17\n  jump\t// in\ntag_31:\n    /* \"#utility.yul\":634:639   */\n  dup2\n    /* \"#utility.yul\":631:666   */\n  eq\n    /* \"#utility.yul\":621:684   */\n  tag_32\n  jumpi\n    /* \"#utility.yul\":680:681   */\n  0x00\n    /* \"#utility.yul\":677:678   */\n  dup1\n    /* \"#utility.yul\":670:682   */\n  revert\n    /* \"#utility.yul\":621:684   */\ntag_32:\n    /* \"#utility.yul\":568:690   */\n  pop\n  jump\t// out\n    /* \"#utility.yul\":696:839   */\ntag_19:\n    /* \"#utility.yul\":753:758   */\n  0x00\n    /* \"#utility.yul\":784:790   */\n  dup2\n    /* \"#utility.yul\":778:791   */\n  mload\n    /* \"#utility.yul\":769:791   */\n  swap1\n  pop\n    /* \"#utility.yul\":800:833   */\n  tag_34\n    /* \"#utility.yul\":827:832   */\n  dup2\n    /* \"#utility.yul\":800:833   */\n  tag_18\n  jump\t// in\ntag_34:\n    /* \"#utility.yul\":696:839   */\n  swap3\n  swap2\n  pop\n  pop\n  jump\t// out\n    /* \"#utility.yul\":845:1196   */\ntag_3:\n    /* \"#utility.yul\":915:921   */\n  0x00\n    /* \"#utility.yul\":964:966   */\n  0x20\n    /* \"#utility.yul\":952:961   */\n  dup3\n    /* \"#utility.yul\":943:950   */\n  dup5\n    /* \"#utility.yul\":939:962   */\n  sub\n    /* \"#utility.yul\":935:967   */\n  slt\n    /* \"#utility.yul\":932:1051   */\n  iszero\n  tag_36\n  jumpi\n    /* \"#utility.yul\":970:1049   */\n  tag_37\n  tag_14\n  jump\t// in\ntag_37:\n    /* \"#utility.yul\":932:1051   */\ntag_36:\n    /* \"#utility.yul\":1090:1091   */\n  0x00\n    /* \"#utility.yul\":1115:1179   */\n  tag_38\n    /* \"#utility.yul\":1171:1178   */\n  dup5\n    /* \"#utility.yul\":1162:1168   */\n  dup3\n    /* \"#utility.yul\":1151:1160   */\n  dup6\n    /* \"#utility.yul\":1147:1169   */\n  add\n    /* \"#utility.yul\":1115:1179   */\n  tag_19\n  jump\t// in\ntag_38:\n    /* \"#utility.yul\":1105:1179   */\n  swap2\n  pop\n    /* \"#utility.yul\":1061:1189   */\n  pop\n    /* \"#utility.yul\":845:1196   */\n  swap3\n  swap2\n  pop\n  pop\n  jump\t// out\n    /* \"#utility.yul\":1202:1371   */\ntag_20:\n    /* \"#utility.yul\":1286:1297   */\n  0x00\n    /* \"#utility.yul\":1320:1326   */\n  dup3\n    /* \"#utility.yul\":1315:1318   */\n  dup3\n    /* \"#utility.yul\":1308:1327   */\n  mstore\n    /* \"#utility.yul\":1360:1364   */\n  0x20\n    /* \"#utility.yul\":1355:1358   */\n  dup3\n    /* \"#utility.yul\":1351:1365   */\n  add\n    /* \"#utility.yul\":1336:1365   */\n  swap1\n  pop\n    /* \"#utility.yul\":1202:1371   */\n  swap3\n  swap2\n  pop\n  pop\n  jump\t// out\n    /* \"#utility.yul\":1377:1542   */\ntag_21:\n    /* \"#utility.yul\":1517:1534   */\n  0x496e76616c696420616464726573730000000000000000000000000000000000\n    /* \"#utility.yul\":1513:1514   */\n  0x00\n    /* \"#utility.yul\":1505:1511   */\n  dup3\n    /* \"#utility.yul\":1501:1515   */\n  add\n    /* \"#utility.yul\":1494:1535   */\n  mstore\n    /* \"#utility.yul\":1377:1542   */\n  pop\n  jump\t// out\n    /* \"#utility.yul\":1548:1914   */\ntag_22:\n    /* \"#utility.yul\":1690:1693   */\n  0x00\n    /* \"#utility.yul\":1711:1778   */\n  tag_42\n    /* \"#utility.yul\":1775:1777   */\n  0x0f\n    /* \"#utility.yul\":1770:1773   */\n  dup4\n    /* \"#utility.yul\":1711:1778   */\n  tag_20\n  jump\t// in\ntag_42:\n    /* \"#utility.yul\":1704:1778   */\n  swap2\n  pop\n    /* \"#utility.yul\":1787:1880   */\n  tag_43\n    /* \"#utility.yul\":1876:1879   */\n  dup3\n    /* \"#utility.yul\":1787:1880   */\n  tag_21\n  jump\t// in\ntag_43:\n    /* \"#utility.yul\":1905:1907   */\n  0x20\n    /* \"#utility.yul\":1900:1903   */\n  dup3\n    /* \"#utility.yul\":1896:1908   */\n  add\n    /* \"#utility.yul\":1889:1908   */\n  swap1\n  pop\n    /* \"#utility.yul\":1548:1914   */\n  swap2\n  swap1\n  pop\n  jump\t// out\n    /* \"#utility.yul\":1920:2339   */\ntag_8:\n    /* \"#utility.yul\":2086:2090   */\n  0x00\n    /* \"#utility.yul\":2124:2126   */\n  0x20\n    /* \"#utility.yul\":2113:2122   */\n  dup3\n    /* \"#utility.yul\":2109:2127   */\n  add\n    /* \"#utility.yul\":2101:2127   */\n  swap1\n  pop\n    /* \"#utility.yul\":2173:2182   */\n  dup2\n    /* \"#utility.yul\":2167:2171   */\n  dup2\n    /* \"#utility.yul\":2163:2183   */\n  sub\n    /* \"#utility.yul\":2159:2160   */\n  0x00\n    /* \"#utility.yul\":2148:2157   */\n  dup4\n    /* \"#utility.yul\":2144:2161   */\n  add\n    /* \"#utility.yul\":2137:2184   */\n  mstore\n    /* \"#utility.yul\":2201:2332   */\n  tag_45\n    /* \"#utility.yul\":2327:2331   */\n  dup2\n    /* \"#utility.yul\":2201:2332   */\n  tag_22\n  jump\t// in\ntag_45:\n    /* \"#utility.yul\":2193:2332   */\n  swap1\n  pop\n    /* \"#utility.yul\":1920:2339   */\n  swap2\n  swap1\n  pop\n  jump\t// out\n    /* \"#utility.yul\":2345:2525   */\ntag_11:\n    /* \"#utility.yul\":2393:2470   */\n  0x4e487b7100000000000000000000000000000000000000000000000000000000\n    /* \"#utility.yul\":2390:2391   */\n  0x00\n    /* \"#utility.yul\":2383:2471   */\n  mstore\n    /* \"#utility.yul\":2490:2494   */\n  0x01\n    /* \"#utility.yul\":2487:2488   */\n  0x04\n    /* \"#utility.yul\":2480:2495   */\n  mstore\n    /* \"#utility.yul\":2514:2518   */\n  0x24\n    /* \"#utility.yul\":2511:2512   */\n  0x00\n    /* \"#utility.yul\":2504:2519   */\n  revert\n    /* \"tryCatch.sol\":61:594  contract Foo {... */\ntag_12:\n  dataSize(sub_0)\n  dup1\n  dataOffset(sub_0)\n  0x00\n  codecopy\n  0x00\n  return\nstop\n\nsub_0: assembly {\n        /* \"tryCatch.sol\":61:594  contract Foo {... */\n      mstore(0x40, 0x80)\n      callvalue\n      dup1\n      iszero\n      tag_1\n      jumpi\n      0x00\n      dup1\n      revert\n    tag_1:\n      pop\n      jumpi(tag_2, lt(calldatasize, 0x04))\n      shr(0xe0, calldataload(0x00))\n      dup1\n      0x8da5cb5b\n      eq\n      tag_3\n      jumpi\n      dup1\n      0xa9bf5633\n      eq\n      tag_4\n      jumpi\n    tag_2:\n      0x00\n      dup1\n      revert\n        /* \"tryCatch.sol\":81:101  address public owner */\n    tag_3:\n      tag_5\n      tag_6\n      jump\t// in\n    tag_5:\n      mload(0x40)\n      tag_7\n      swap2\n      swap1\n      tag_8\n      jump\t// in\n    tag_7:\n      mload(0x40)\n      dup1\n      swap2\n      sub\n      swap1\n      return\n        /* \"tryCatch.sol\":442:591  function myFunc(uint x) public pure returns (string memory) {... */\n    tag_4:\n      tag_9\n      0x04\n      dup1\n      calldatasize\n      sub\n      dup2\n      add\n      swap1\n      tag_10\n      swap2\n      swap1\n      tag_11\n      jump\t// in\n    tag_10:\n      tag_12\n      jump\t// in\n    tag_9:\n      mload(0x40)\n      tag_13\n      swap2\n      swap1\n      tag_14\n      jump\t// in\n    tag_13:\n      mload(0x40)\n      dup1\n      swap2\n      sub\n      swap1\n      return\n        /* \"tryCatch.sol\":81:101  address public owner */\n    tag_6:\n      0x00\n      dup1\n      sload\n      swap1\n      0x0100\n      exp\n      swap1\n      div\n      0xffffffffffffffffffffffffffffffffffffffff\n      and\n      dup2\n      jump\t// out\n        /* \"tryCatch.sol\":442:591  function myFunc(uint x) public pure returns (string memory) {... */\n    tag_12:\n        /* \"tryCatch.sol\":487:500  string memory */\n      0x60\n        /* \"tryCatch.sol\":526:527  0 */\n      0x00\n        /* \"tryCatch.sol\":521:522  x */\n      dup3\n        /* \"tryCatch.sol\":521:527  x != 0 */\n      sub\n        /* \"tryCatch.sol\":513:546  require(x != 0, \"require failed\") */\n      tag_16\n      jumpi\n      mload(0x40)\n      0x08c379a000000000000000000000000000000000000000000000000000000000\n      dup2\n      mstore\n      0x04\n      add\n      tag_17\n      swap1\n      tag_18\n      jump\t// in\n    tag_17:\n      mload(0x40)\n      dup1\n      swap2\n      sub\n      swap1\n      revert\n    tag_16:\n        /* \"tryCatch.sol\":557:583  return \"my func is called\" */\n      mload(0x40)\n      dup1\n      0x40\n      add\n      0x40\n      mstore\n      dup1\n      0x11\n      dup2\n      mstore\n      0x20\n      add\n      0x6d792066756e632069732063616c6c6564000000000000000000000000000000\n      dup2\n      mstore\n      pop\n      swap1\n      pop\n        /* \"tryCatch.sol\":442:591  function myFunc(uint x) public pure returns (string memory) {... */\n      swap2\n      swap1\n      pop\n      jump\t// out\n        /* \"#utility.yul\":7:133   */\n    tag_19:\n        /* \"#utility.yul\":44:51   */\n      0x00\n        /* \"#utility.yul\":84:126   */\n      0xffffffffffffffffffffffffffffffffffffffff\n        /* \"#utility.yul\":77:82   */\n      dup3\n        /* \"#utility.yul\":73:127   */\n      and\n        /* \"#utility.yul\":62:127   */\n      swap1\n      pop\n        /* \"#utility.yul\":7:133   */\n      swap2\n      swap1\n      pop\n      jump\t// out\n        /* \"#utility.yul\":139:235   */\n    tag_20:\n        /* \"#utility.yul\":176:183   */\n      0x00\n        /* \"#utility.yul\":205:229   */\n      tag_38\n        /* \"#utility.yul\":223:228   */\n      dup3\n        /* \"#utility.yul\":205:229   */\n      tag_19\n      jump\t// in\n    tag_38:\n        /* \"#utility.yul\":194:229   */\n      swap1\n      pop\n        /* \"#utility.yul\":139:235   */\n      swap2\n      swap1\n      pop\n      jump\t// out\n        /* \"#utility.yul\":241:359   */\n    tag_21:\n        /* \"#utility.yul\":328:352   */\n      tag_40\n        /* \"#utility.yul\":346:351   */\n      dup2\n        /* \"#utility.yul\":328:352   */\n      tag_20\n      jump\t// in\n    tag_40:\n        /* \"#utility.yul\":323:326   */\n      dup3\n        /* \"#utility.yul\":316:353   */\n      mstore\n        /* \"#utility.yul\":241:359   */\n      pop\n      pop\n      jump\t// out\n        /* \"#utility.yul\":365:587   */\n    tag_8:\n        /* \"#utility.yul\":458:462   */\n      0x00\n        /* \"#utility.yul\":496:498   */\n      0x20\n        /* \"#utility.yul\":485:494   */\n      dup3\n        /* \"#utility.yul\":481:499   */\n      add\n        /* \"#utility.yul\":473:499   */\n      swap1\n      pop\n        /* \"#utility.yul\":509:580   */\n      tag_42\n        /* \"#utility.yul\":577:578   */\n      0x00\n        /* \"#utility.yul\":566:575   */\n      dup4\n        /* \"#utility.yul\":562:579   */\n      add\n        /* \"#utility.yul\":553:559   */\n      dup5\n        /* \"#utility.yul\":509:580   */\n      tag_21\n      jump\t// in\n    tag_42:\n        /* \"#utility.yul\":365:587   */\n      swap3\n      swap2\n      pop\n      pop\n      jump\t// out\n        /* \"#utility.yul\":674:791   */\n    tag_23:\n        /* \"#utility.yul\":783:784   */\n      0x00\n        /* \"#utility.yul\":780:781   */\n      dup1\n        /* \"#utility.yul\":773:785   */\n      revert\n        /* \"#utility.yul\":920:997   */\n    tag_25:\n        /* \"#utility.yul\":957:964   */\n      0x00\n        /* \"#utility.yul\":986:991   */\n      dup2\n        /* \"#utility.yul\":975:991   */\n      swap1\n      pop\n        /* \"#utility.yul\":920:997   */\n      swap2\n      swap1\n      pop\n      jump\t// out\n        /* \"#utility.yul\":1003:1125   */\n    tag_26:\n        /* \"#utility.yul\":1076:1100   */\n      tag_48\n        /* \"#utility.yul\":1094:1099   */\n      dup2\n        /* \"#utility.yul\":1076:1100   */\n      tag_25\n      jump\t// in\n    tag_48:\n        /* \"#utility.yul\":1069:1074   */\n      dup2\n        /* \"#utility.yul\":1066:1101   */\n      eq\n        /* \"#utility.yul\":1056:1119   */\n      tag_49\n      jumpi\n        /* \"#utility.yul\":1115:1116   */\n      0x00\n        /* \"#utility.yul\":1112:1113   */\n      dup1\n        /* \"#utility.yul\":1105:1117   */\n      revert\n        /* \"#utility.yul\":1056:1119   */\n    tag_49:\n        /* \"#utility.yul\":1003:1125   */\n      pop\n      jump\t// out\n        /* \"#utility.yul\":1131:1270   */\n    tag_27:\n        /* \"#utility.yul\":1177:1182   */\n      0x00\n        /* \"#utility.yul\":1215:1221   */\n      dup2\n        /* \"#utility.yul\":1202:1222   */\n      calldataload\n        /* \"#utility.yul\":1193:1222   */\n      swap1\n      pop\n        /* \"#utility.yul\":1231:1264   */\n      tag_51\n        /* \"#utility.yul\":1258:1263   */\n      dup2\n        /* \"#utility.yul\":1231:1264   */\n      tag_26\n      jump\t// in\n    tag_51:\n        /* \"#utility.yul\":1131:1270   */\n      swap3\n      swap2\n      pop\n      pop\n      jump\t// out\n        /* \"#utility.yul\":1276:1605   */\n    tag_11:\n        /* \"#utility.yul\":1335:1341   */\n      0x00\n        /* \"#utility.yul\":1384:1386   */\n      0x20\n        /* \"#utility.yul\":1372:1381   */\n      dup3\n        /* \"#utility.yul\":1363:1370   */\n      dup5\n        /* \"#utility.yul\":1359:1382   */\n      sub\n        /* \"#utility.yul\":1355:1387   */\n      slt\n        /* \"#utility.yul\":1352:1471   */\n      iszero\n      tag_53\n      jumpi\n        /* \"#utility.yul\":1390:1469   */\n      tag_54\n      tag_23\n      jump\t// in\n    tag_54:\n        /* \"#utility.yul\":1352:1471   */\n    tag_53:\n        /* \"#utility.yul\":1510:1511   */\n      0x00\n        /* \"#utility.yul\":1535:1588   */\n      tag_55\n        /* \"#utility.yul\":1580:1587   */\n      dup5\n        /* \"#utility.yul\":1571:1577   */\n      dup3\n        /* \"#utility.yul\":1560:1569   */\n      dup6\n        /* \"#utility.yul\":1556:1578   */\n      add\n        /* \"#utility.yul\":1535:1588   */\n      tag_27\n      jump\t// in\n    tag_55:\n        /* \"#utility.yul\":1525:1588   */\n      swap2\n      pop\n        /* \"#utility.yul\":1481:1598   */\n      pop\n        /* \"#utility.yul\":1276:1605   */\n      swap3\n      swap2\n      pop\n      pop\n      jump\t// out\n        /* \"#utility.yul\":1611:1710   */\n    tag_28:\n        /* \"#utility.yul\":1663:1669   */\n      0x00\n        /* \"#utility.yul\":1697:1702   */\n      dup2\n        /* \"#utility.yul\":1691:1703   */\n      mload\n        /* \"#utility.yul\":1681:1703   */\n      swap1\n      pop\n        /* \"#utility.yul\":1611:1710   */\n      swap2\n      swap1\n      pop\n      jump\t// out\n        /* \"#utility.yul\":1716:1885   */\n    tag_29:\n        /* \"#utility.yul\":1800:1811   */\n      0x00\n        /* \"#utility.yul\":1834:1840   */\n      dup3\n        /* \"#utility.yul\":1829:1832   */\n      dup3\n        /* \"#utility.yul\":1822:1841   */\n      mstore\n        /* \"#utility.yul\":1874:1878   */\n      0x20\n        /* \"#utility.yul\":1869:1872   */\n      dup3\n        /* \"#utility.yul\":1865:1879   */\n      add\n        /* \"#utility.yul\":1850:1879   */\n      swap1\n      pop\n        /* \"#utility.yul\":1716:1885   */\n      swap3\n      swap2\n      pop\n      pop\n      jump\t// out\n        /* \"#utility.yul\":1891:2030   */\n    tag_30:\n        /* \"#utility.yul\":1980:1986   */\n      dup3\n        /* \"#utility.yul\":1975:1978   */\n      dup2\n        /* \"#utility.yul\":1970:1973   */\n      dup4\n        /* \"#utility.yul\":1964:1987   */\n      mcopy\n        /* \"#utility.yul\":2021:2022   */\n      0x00\n        /* \"#utility.yul\":2012:2018   */\n      dup4\n        /* \"#utility.yul\":2007:2010   */\n      dup4\n        /* \"#utility.yul\":2003:2019   */\n      add\n        /* \"#utility.yul\":1996:2023   */\n      mstore\n        /* \"#utility.yul\":1891:2030   */\n      pop\n      pop\n      pop\n      jump\t// out\n        /* \"#utility.yul\":2036:2138   */\n    tag_31:\n        /* \"#utility.yul\":2077:2083   */\n      0x00\n        /* \"#utility.yul\":2128:2130   */\n      0x1f\n        /* \"#utility.yul\":2124:2131   */\n      not\n        /* \"#utility.yul\":2119:2121   */\n      0x1f\n        /* \"#utility.yul\":2112:2117   */\n      dup4\n        /* \"#utility.yul\":2108:2122   */\n      add\n        /* \"#utility.yul\":2104:2132   */\n      and\n        /* \"#utility.yul\":2094:2132   */\n      swap1\n      pop\n        /* \"#utility.yul\":2036:2138   */\n      swap2\n      swap1\n      pop\n      jump\t// out\n        /* \"#utility.yul\":2144:2521   */\n    tag_32:\n        /* \"#utility.yul\":2232:2235   */\n      0x00\n        /* \"#utility.yul\":2260:2299   */\n      tag_61\n        /* \"#utility.yul\":2293:2298   */\n      dup3\n        /* \"#utility.yul\":2260:2299   */\n      tag_28\n      jump\t// in\n    tag_61:\n        /* \"#utility.yul\":2315:2386   */\n      tag_62\n        /* \"#utility.yul\":2379:2385   */\n      dup2\n        /* \"#utility.yul\":2374:2377   */\n      dup6\n        /* \"#utility.yul\":2315:2386   */\n      tag_29\n      jump\t// in\n    tag_62:\n        /* \"#utility.yul\":2308:2386   */\n      swap4\n      pop\n        /* \"#utility.yul\":2395:2460   */\n      tag_63\n        /* \"#utility.yul\":2453:2459   */\n      dup2\n        /* \"#utility.yul\":2448:2451   */\n      dup6\n        /* \"#utility.yul\":2441:2445   */\n      0x20\n        /* \"#utility.yul\":2434:2439   */\n      dup7\n        /* \"#utility.yul\":2430:2446   */\n      add\n        /* \"#utility.yul\":2395:2460   */\n      tag_30\n      jump\t// in\n    tag_63:\n        /* \"#utility.yul\":2485:2514   */\n      tag_64\n        /* \"#utility.yul\":2507:2513   */\n      dup2\n        /* \"#utility.yul\":2485:2514   */\n      tag_31\n      jump\t// in\n    tag_64:\n        /* \"#utility.yul\":2480:2483   */\n      dup5\n        /* \"#utility.yul\":2476:2515   */\n      add\n        /* \"#utility.yul\":2469:2515   */\n      swap2\n      pop\n        /* \"#utility.yul\":2236:2521   */\n      pop\n        /* \"#utility.yul\":2144:2521   */\n      swap3\n      swap2\n      pop\n      pop\n      jump\t// out\n        /* \"#utility.yul\":2527:2840   */\n    tag_14:\n        /* \"#utility.yul\":2640:2644   */\n      0x00\n        /* \"#utility.yul\":2678:2680   */\n      0x20\n        /* \"#utility.yul\":2667:2676   */\n      dup3\n        /* \"#utility.yul\":2663:2681   */\n      add\n        /* \"#utility.yul\":2655:2681   */\n      swap1\n      pop\n        /* \"#utility.yul\":2727:2736   */\n      dup2\n        /* \"#utility.yul\":2721:2725   */\n      dup2\n        /* \"#utility.yul\":2717:2737   */\n      sub\n        /* \"#utility.yul\":2713:2714   */\n      0x00\n        /* \"#utility.yul\":2702:2711   */\n      dup4\n        /* \"#utility.yul\":2698:2715   */\n      add\n        /* \"#utility.yul\":2691:2738   */\n      mstore\n        /* \"#utility.yul\":2755:2833   */\n      tag_66\n        /* \"#utility.yul\":2828:2832   */\n      dup2\n        /* \"#utility.yul\":2819:2825   */\n      dup5\n        /* \"#utility.yul\":2755:2833   */\n      tag_32\n      jump\t// in\n    tag_66:\n        /* \"#utility.yul\":2747:2833   */\n      swap1\n      pop\n        /* \"#utility.yul\":2527:2840   */\n      swap3\n      swap2\n      pop\n      pop\n      jump\t// out\n        /* \"#utility.yul\":2846:3010   */\n    tag_33:\n        /* \"#utility.yul\":2986:3002   */\n      0x72657175697265206661696c6564000000000000000000000000000000000000\n        /* \"#utility.yul\":2982:2983   */\n      0x00\n        /* \"#utility.yul\":2974:2980   */\n      dup3\n        /* \"#utility.yul\":2970:2984   */\n      add\n        /* \"#utility.yul\":2963:3003   */\n      mstore\n        /* \"#utility.yul\":2846:3010   */\n      pop\n      jump\t// out\n        /* \"#utility.yul\":3016:3382   */\n    tag_34:\n        /* \"#utility.yul\":3158:3161   */\n      0x00\n        /* \"#utility.yul\":3179:3246   */\n      tag_69\n        /* \"#utility.yul\":3243:3245   */\n      0x0e\n        /* \"#utility.yul\":3238:3241   */\n      dup4\n        /* \"#utility.yul\":3179:3246   */\n      tag_29\n      jump\t// in\n    tag_69:\n        /* \"#utility.yul\":3172:3246   */\n      swap2\n      pop\n        /* \"#utility.yul\":3255:3348   */\n      tag_70\n        /* \"#utility.yul\":3344:3347   */\n      dup3\n        /* \"#utility.yul\":3255:3348   */\n      tag_33\n      jump\t// in\n    tag_70:\n        /* \"#utility.yul\":3373:3375   */\n      0x20\n        /* \"#utility.yul\":3368:3371   */\n      dup3\n        /* \"#utility.yul\":3364:3376   */\n      add\n        /* \"#utility.yul\":3357:3376   */\n      swap1\n      pop\n        /* \"#utility.yul\":3016:3382   */\n      swap2\n      swap1\n      pop\n      jump\t// out\n        /* \"#utility.yul\":3388:3807   */\n    tag_18:\n        /* \"#utility.yul\":3554:3558   */\n      0x00\n        /* \"#utility.yul\":3592:3594   */\n      0x20\n        /* \"#utility.yul\":3581:3590   */\n      dup3\n        /* \"#utility.yul\":3577:3595   */\n      add\n        /* \"#utility.yul\":3569:3595   */\n      swap1\n      pop\n        /* \"#utility.yul\":3641:3650   */\n      dup2\n        /* \"#utility.yul\":3635:3639   */\n      dup2\n        /* \"#utility.yul\":3631:3651   */\n      sub\n        /* \"#utility.yul\":3627:3628   */\n      0x00\n        /* \"#utility.yul\":3616:3625   */\n      dup4\n        /* \"#utility.yul\":3612:3629   */\n      add\n        /* \"#utility.yul\":3605:3652   */\n      mstore\n        /* \"#utility.yul\":3669:3800   */\n      tag_72\n        /* \"#utility.yul\":3795:3799   */\n      dup2\n        /* \"#utility.yul\":3669:3800   */\n      tag_34\n      jump\t// in\n    tag_72:\n        /* \"#utility.yul\":3661:3800   */\n      swap1\n      pop\n        /* \"#utility.yul\":3388:3807   */\n      swap2\n      swap1\n      pop\n      jump\t// out\n\n    auxdata: 0xa2646970667358221220810e890f52a52e521715703f8027f0c1fec483e87e4a7c946ac9f827c14b026d64736f6c634300081a0033\n}\n",
				"bytecode": {
					"linkReferences": {},
					"object": "608060405234801561000f575f80fd5b5060405161056e38038061056e8339818101604052810190610031919061017f565b5f73ffffffffffffffffffffffffffffffffffffffff168173ffffffffffffffffffffffffffffffffffffffff160361009f576040517f08c379a000000000000000000000000000000000000000000000000000000000815260040161009690610204565b60405180910390fd5b600173ffffffffffffffffffffffffffffffffffffffff168173ffffffffffffffffffffffffffffffffffffffff16036100dc576100db610222565b5b805f806101000a81548173ffffffffffffffffffffffffffffffffffffffff021916908373ffffffffffffffffffffffffffffffffffffffff1602179055505061024f565b5f80fd5b5f73ffffffffffffffffffffffffffffffffffffffff82169050919050565b5f61014e82610125565b9050919050565b61015e81610144565b8114610168575f80fd5b50565b5f8151905061017981610155565b92915050565b5f6020828403121561019457610193610121565b5b5f6101a18482850161016b565b91505092915050565b5f82825260208201905092915050565b7f496e76616c6964206164647265737300000000000000000000000000000000005f82015250565b5f6101ee600f836101aa565b91506101f9826101ba565b602082019050919050565b5f6020820190508181035f83015261021b816101e2565b9050919050565b7f4e487b71000000000000000000000000000000000000000000000000000000005f52600160045260245ffd5b6103128061025c5f395ff3fe608060405234801561000f575f80fd5b5060043610610034575f3560e01c80638da5cb5b14610038578063a9bf563314610056575b5f80fd5b610040610086565b60405161004d9190610169565b60405180910390f35b610070600480360381019061006b91906101b9565b6100a9565b60405161007d9190610254565b60405180910390f35b5f8054906101000a900473ffffffffffffffffffffffffffffffffffffffff1681565b60605f82036100ed576040517f08c379a00000000000000000000000000000000000000000000000000000000081526004016100e4906102be565b60405180910390fd5b6040518060400160405280601181526020017f6d792066756e632069732063616c6c65640000000000000000000000000000008152509050919050565b5f73ffffffffffffffffffffffffffffffffffffffff82169050919050565b5f6101538261012a565b9050919050565b61016381610149565b82525050565b5f60208201905061017c5f83018461015a565b92915050565b5f80fd5b5f819050919050565b61019881610186565b81146101a2575f80fd5b50565b5f813590506101b38161018f565b92915050565b5f602082840312156101ce576101cd610182565b5b5f6101db848285016101a5565b91505092915050565b5f81519050919050565b5f82825260208201905092915050565b8281835e5f83830152505050565b5f601f19601f8301169050919050565b5f610226826101e4565b61023081856101ee565b93506102408185602086016101fe565b6102498161020c565b840191505092915050565b5f6020820190508181035f83015261026c818461021c565b905092915050565b7f72657175697265206661696c65640000000000000000000000000000000000005f82015250565b5f6102a8600e836101ee565b91506102b382610274565b602082019050919050565b5f6020820190508181035f8301526102d58161029c565b905091905056fea2646970667358221220810e890f52a52e521715703f8027f0c1fec483e87e4a7c946ac9f827c14b026d64736f6c634300081a0033",
					"opcodes": "PUSH1 0x80 PUSH1 0x40 MSTORE CALLVALUE DUP1 ISZERO PUSH2 0xF JUMPI PUSH0 DUP1 REVERT JUMPDEST POP PUSH1 0x40 MLOAD PUSH2 0x56E CODESIZE SUB DUP1 PUSH2 0x56E DUP4 CODECOPY DUP2 DUP2 ADD PUSH1 0x40 MSTORE DUP2 ADD SWAP1 PUSH2 0x31 SWAP2 SWAP1 PUSH2 0x17F JUMP JUMPDEST PUSH0 PUSH20 0xFFFFFFFFFFFFFFFFFFFFFFFFFFFFFFFFFFFFFFFF AND DUP2 PUSH20 0xFFFFFFFFFFFFFFFFFFFFFFFFFFFFFFFFFFFFFFFF AND SUB PUSH2 0x9F JUMPI PUSH1 0x40 MLOAD PUSH32 0x8C379A000000000000000000000000000000000000000000000000000000000 DUP2 MSTORE PUSH1 0x4 ADD PUSH2 0x96 SWAP1 PUSH2 0x204 JUMP JUMPDEST PUSH1 0x40 MLOAD DUP1 SWAP2 SUB SWAP1 REVERT JUMPDEST PUSH1 0x1 PUSH20 0xFFFFFFFFFFFFFFFFFFFFFFFFFFFFFFFFFFFFFFFF AND DUP2 PUSH20 0xFFFFFFFFFFFFFFFFFFFFFFFFFFFFFFFFFFFFFFFF AND SUB PUSH2 0xDC JUMPI PUSH2 0xDB PUSH2 0x222 JUMP JUMPDEST JUMPDEST DUP1 PUSH0 DUP1 PUSH2 0x100 EXP DUP2 SLOAD DUP2 PUSH20 0xFFFFFFFFFFFFFFFFFFFFFFFFFFFFFFFFFFFFFFFF MUL NOT AND SWAP1 DUP4 PUSH20 0xFFFFFFFFFFFFFFFFFFFFFFFFFFFFFFFFFFFFFFFF AND MUL OR SWAP1 SSTORE POP POP PUSH2 0x24F JUMP JUMPDEST PUSH0 DUP1 REVERT JUMPDEST PUSH0 PUSH20 0xFFFFFFFFFFFFFFFFFFFFFFFFFFFFFFFFFFFFFFFF DUP3 AND SWAP1 POP SWAP2 SWAP1 POP JUMP JUMPDEST PUSH0 PUSH2 0x14E DUP3 PUSH2 0x125 JUMP JUMPDEST SWAP1 POP SWAP2 SWAP1 POP JUMP JUMPDEST PUSH2 0x15E DUP2 PUSH2 0x144 JUMP JUMPDEST DUP2 EQ PUSH2 0x168 JUMPI PUSH0 DUP1 REVERT JUMPDEST POP JUMP JUMPDEST PUSH0 DUP2 MLOAD SWAP1 POP PUSH2 0x179 DUP2 PUSH2 0x155 JUMP JUMPDEST SWAP3 SWAP2 POP POP JUMP JUMPDEST PUSH0 PUSH1 0x20 DUP3 DUP5 SUB SLT ISZERO PUSH2 0x194 JUMPI PUSH2 0x193 PUSH2 0x121 JUMP JUMPDEST JUMPDEST PUSH0 PUSH2 0x1A1 DUP5 DUP3 DUP6 ADD PUSH2 0x16B JUMP JUMPDEST SWAP2 POP POP SWAP3 SWAP2 POP POP JUMP JUMPDEST PUSH0 DUP3 DUP3 MSTORE PUSH1 0x20 DUP3 ADD SWAP1 POP SWAP3 SWAP2 POP POP JUMP JUMPDEST PUSH32 0x496E76616C696420616464726573730000000000000000000000000000000000 PUSH0 DUP3 ADD MSTORE POP JUMP JUMPDEST PUSH0 PUSH2 0x1EE PUSH1 0xF DUP4 PUSH2 0x1AA JUMP JUMPDEST SWAP2 POP PUSH2 0x1F9 DUP3 PUSH2 0x1BA JUMP JUMPDEST PUSH1 0x20 DUP3 ADD SWAP1 POP SWAP2 SWAP1 POP JUMP JUMPDEST PUSH0 PUSH1 0x20 DUP3 ADD SWAP1 POP DUP2 DUP2 SUB PUSH0 DUP4 ADD MSTORE PUSH2 0x21B DUP2 PUSH2 0x1E2 JUMP JUMPDEST SWAP1 POP SWAP2 SWAP1 POP JUMP JUMPDEST PUSH32 0x4E487B7100000000000000000000000000000000000000000000000000000000 PUSH0 MSTORE PUSH1 0x1 PUSH1 0x4 MSTORE PUSH1 0x24 PUSH0 REVERT JUMPDEST PUSH2 0x312 DUP1 PUSH2 0x25C PUSH0 CODECOPY PUSH0 RETURN INVALID PUSH1 0x80 PUSH1 0x40 MSTORE CALLVALUE DUP1 ISZERO PUSH2 0xF JUMPI PUSH0 DUP1 REVERT JUMPDEST POP PUSH1 0x4 CALLDATASIZE LT PUSH2 0x34 JUMPI PUSH0 CALLDATALOAD PUSH1 0xE0 SHR DUP1 PUSH4 0x8DA5CB5B EQ PUSH2 0x38 JUMPI DUP1 PUSH4 0xA9BF5633 EQ PUSH2 0x56 JUMPI JUMPDEST PUSH0 DUP1 REVERT JUMPDEST PUSH2 0x40 PUSH2 0x86 JUMP JUMPDEST PUSH1 0x40 MLOAD PUSH2 0x4D SWAP2 SWAP1 PUSH2 0x169 JUMP JUMPDEST PUSH1 0x40 MLOAD DUP1 SWAP2 SUB SWAP1 RETURN JUMPDEST PUSH2 0x70 PUSH1 0x4 DUP1 CALLDATASIZE SUB DUP2 ADD SWAP1 PUSH2 0x6B SWAP2 SWAP1 PUSH2 0x1B9 JUMP JUMPDEST PUSH2 0xA9 JUMP JUMPDEST PUSH1 0x40 MLOAD PUSH2 0x7D SWAP2 SWAP1 PUSH2 0x254 JUMP JUMPDEST PUSH1 0x40 MLOAD DUP1 SWAP2 SUB SWAP1 RETURN JUMPDEST PUSH0 DUP1 SLOAD SWAP1 PUSH2 0x100 EXP SWAP1 DIV PUSH20 0xFFFFFFFFFFFFFFFFFFFFFFFFFFFFFFFFFFFFFFFF AND DUP2 JUMP JUMPDEST PUSH1 0x60 PUSH0 DUP3 SUB PUSH2 0xED JUMPI PUSH1 0x40 MLOAD PUSH32 0x8C379A000000000000000000000000000000000000000000000000000000000 DUP2 MSTORE PUSH1 0x4 ADD PUSH2 0xE4 SWAP1 PUSH2 0x2BE JUMP JUMPDEST PUSH1 0x40 MLOAD DUP1 SWAP2 SUB SWAP1 REVERT JUMPDEST PUSH1 0x40 MLOAD DUP1 PUSH1 0x40 ADD PUSH1 0x40 MSTORE DUP1 PUSH1 0x11 DUP2 MSTORE PUSH1 0x20 ADD PUSH32 0x6D792066756E632069732063616C6C6564000000000000000000000000000000 DUP2 MSTORE POP SWAP1 POP SWAP2 SWAP1 POP JUMP JUMPDEST PUSH0 PUSH20 0xFFFFFFFFFFFFFFFFFFFFFFFFFFFFFFFFFFFFFFFF DUP3 AND SWAP1 POP SWAP2 SWAP1 POP JUMP JUMPDEST PUSH0 PUSH2 0x153 DUP3 PUSH2 0x12A JUMP JUMPDEST SWAP1 POP SWAP2 SWAP1 POP JUMP JUMPDEST PUSH2 0x163 DUP2 PUSH2 0x149 JUMP JUMPDEST DUP3 MSTORE POP POP JUMP JUMPDEST PUSH0 PUSH1 0x20 DUP3 ADD SWAP1 POP PUSH2 0x17C PUSH0 DUP4 ADD DUP5 PUSH2 0x15A JUMP JUMPDEST SWAP3 SWAP2 POP POP JUMP JUMPDEST PUSH0 DUP1 REVERT JUMPDEST PUSH0 DUP2 SWAP1 POP SWAP2 SWAP1 POP JUMP JUMPDEST PUSH2 0x198 DUP2 PUSH2 0x186 JUMP JUMPDEST DUP2 EQ PUSH2 0x1A2 JUMPI PUSH0 DUP1 REVERT JUMPDEST POP JUMP JUMPDEST PUSH0 DUP2 CALLDATALOAD SWAP1 POP PUSH2 0x1B3 DUP2 PUSH2 0x18F JUMP JUMPDEST SWAP3 SWAP2 POP POP JUMP JUMPDEST PUSH0 PUSH1 0x20 DUP3 DUP5 SUB SLT ISZERO PUSH2 0x1CE JUMPI PUSH2 0x1CD PUSH2 0x182 JUMP JUMPDEST JUMPDEST PUSH0 PUSH2 0x1DB DUP5 DUP3 DUP6 ADD PUSH2 0x1A5 JUMP JUMPDEST SWAP2 POP POP SWAP3 SWAP2 POP POP JUMP JUMPDEST PUSH0 DUP2 MLOAD SWAP1 POP SWAP2 SWAP1 POP JUMP JUMPDEST PUSH0 DUP3 DUP3 MSTORE PUSH1 0x20 DUP3 ADD SWAP1 POP SWAP3 SWAP2 POP POP JUMP JUMPDEST DUP3 DUP2 DUP4 MCOPY PUSH0 DUP4 DUP4 ADD MSTORE POP POP POP JUMP JUMPDEST PUSH0 PUSH1 0x1F NOT PUSH1 0x1F DUP4 ADD AND SWAP1 POP SWAP2 SWAP1 POP JUMP JUMPDEST PUSH0 PUSH2 0x226 DUP3 PUSH2 0x1E4 JUMP JUMPDEST PUSH2 0x230 DUP2 DUP6 PUSH2 0x1EE JUMP JUMPDEST SWAP4 POP PUSH2 0x240 DUP2 DUP6 PUSH1 0x20 DUP7 ADD PUSH2 0x1FE JUMP JUMPDEST PUSH2 0x249 DUP2 PUSH2 0x20C JUMP JUMPDEST DUP5 ADD SWAP2 POP POP SWAP3 SWAP2 POP POP JUMP JUMPDEST PUSH0 PUSH1 0x20 DUP3 ADD SWAP1 POP DUP2 DUP2 SUB PUSH0 DUP4 ADD MSTORE PUSH2 0x26C DUP2 DUP5 PUSH2 0x21C JUMP JUMPDEST SWAP1 POP SWAP3 SWAP2 POP POP JUMP JUMPDEST PUSH32 0x72657175697265206661696C6564000000000000000000000000000000000000 PUSH0 DUP3 ADD MSTORE POP JUMP JUMPDEST PUSH0 PUSH2 0x2A8 PUSH1 0xE DUP4 PUSH2 0x1EE JUMP JUMPDEST SWAP2 POP PUSH2 0x2B3 DUP3 PUSH2 0x274 JUMP JUMPDEST PUSH1 0x20 DUP3 ADD SWAP1 POP SWAP2 SWAP1 POP JUMP JUMPDEST PUSH0 PUSH1 0x20 DUP3 ADD SWAP1 POP DUP2 DUP2 SUB PUSH0 DUP4 ADD MSTORE PUSH2 0x2D5 DUP2 PUSH2 0x29C JUMP JUMPDEST SWAP1 POP SWAP2 SWAP1 POP JUMP INVALID LOG2 PUSH5 0x6970667358 0x22 SLT KECCAK256 DUP2 0xE DUP10 0xF MSTORE 0xA5 0x2E MSTORE OR ISZERO PUSH17 0x3F8027F0C1FEC483E87E4A7C946AC9F827 0xC1 0x4B MUL PUSH14 0x64736F6C634300081A0033000000 "
				},
				"gasEstimates": {
					"creation": {
						"codeDepositCost": "157200",
						"executionCost": "infinite",
						"totalCost": "infinite"
					},
					"external": {
						"myFunc(uint256)": "infinite",
						"owner()": "2483"
					}
				},
				"methodIdentifiers": {
					"myFunc(uint256)": "a9bf5633",
					"owner()": "8da5cb5b"
				}
			},
			"storageLayout": {
				"storage": [
					{
						"astId": 3,
						"contract": "tryCatch.sol:Foo",
						"label": "owner",
						"offset": 0,
						"slot": "0",
						"type": "t_address"
					}
				],
				"types": {
					"t_address": {
						"encoding": "inplace",
						"label": "address",
						"numberOfBytes": "20"
					}
				}
			},
			"userdoc": {
				"kind": "user",
				"methods": {},
				"version": 1
			}
		}
	}
}