{
	"ifElse.sol": {
		"condition": {
			"abi": [
				{
					"inputs": [
						{
							"internalType": "uint256",
							"name": "_value",
							"type": "uint256"
						}
					],
					"name": "getDate",
					"outputs": [
						{
							"internalType": "string",
							"name": "",
							"type": "string"
						}
					],
					"stateMutability": "nonpayable",
					"type": "function"
				},
				{
					"inputs": [],
					"name": "hello",
					"outputs": [
						{
							"internalType": "string",
							"name": "",
							"type": "string"
						}
					],
					"stateMutability": "view",
					"type": "function"
				}
			],
			"devdoc": {
				"kind": "dev",
				"methods": {},
				"version": 1
			},
			"evm": {
				"assembly": "    /* \"ifElse.sol\":61:623  contract condition{... */\n  mstore(0x40, 0x80)\n  callvalue\n  dup1\n  iszero\n  tag_1\n  jumpi\n  revert(0x00, 0x00)\ntag_1:\n  pop\n  dataSize(sub_0)\n  dup1\n  dataOffset(sub_0)\n  0x00\n  codecopy\n  0x00\n  return\nstop\n\nsub_0: assembly {\n        /* \"ifElse.sol\":61:623  contract condition{... */\n      mstore(0x40, 0x80)\n      callvalue\n      dup1\n      iszero\n      tag_1\n      jumpi\n      revert(0x00, 0x00)\n    tag_1:\n      pop\n      jumpi(tag_2, lt(calldatasize, 0x04))\n      shr(0xe0, calldataload(0x00))\n      dup1\n      0x19ff1d21\n      eq\n      tag_3\n      jumpi\n      dup1\n      0x2b57298b\n      eq\n      tag_4\n      jumpi\n    tag_2:\n      revert(0x00, 0x00)\n        /* \"ifElse.sol\":86:105  string public hello */\n    tag_3:\n      tag_5\n      tag_6\n      jump\t// in\n    tag_5:\n      mload(0x40)\n      tag_7\n      swap2\n      swap1\n      tag_8\n      jump\t// in\n    tag_7:\n      mload(0x40)\n      dup1\n      swap2\n      sub\n      swap1\n      return\n        /* \"ifElse.sol\":355:620  function getDate(uint _value) public returns(string memory){... */\n    tag_4:\n      tag_9\n      0x04\n      dup1\n      calldatasize\n      sub\n      dup2\n      add\n      swap1\n      tag_10\n      swap2\n      swap1\n      tag_11\n      jump\t// in\n    tag_10:\n      tag_12\n      jump\t// in\n    tag_9:\n      mload(0x40)\n      tag_13\n      swap2\n      swap1\n      tag_8\n      jump\t// in\n    tag_13:\n      mload(0x40)\n      dup1\n      swap2\n      sub\n      swap1\n      return\n        /* \"ifElse.sol\":86:105  string public hello */\n    tag_6:\n      0x00\n      dup1\n      sload\n      tag_14\n      swap1\n      tag_15\n      jump\t// in\n    tag_14:\n      dup1\n      0x1f\n      add\n      0x20\n      dup1\n      swap2\n      div\n      mul\n      0x20\n      add\n      mload(0x40)\n      swap1\n      dup2\n      add\n      0x40\n      mstore\n      dup1\n      swap3\n      swap2\n      swap1\n      dup2\n      dup2\n      mstore\n      0x20\n      add\n      dup3\n      dup1\n      sload\n      tag_16\n      swap1\n      tag_15\n      jump\t// in\n    tag_16:\n      dup1\n      iszero\n      tag_17\n      jumpi\n      dup1\n      0x1f\n      lt\n      tag_18\n      jumpi\n      0x0100\n      dup1\n      dup4\n      sload\n      div\n      mul\n      dup4\n      mstore\n      swap2\n      0x20\n      add\n      swap2\n      jump(tag_17)\n    tag_18:\n      dup3\n      add\n      swap2\n      swap1\n      0x00\n      mstore\n      keccak256(0x00, 0x20)\n      swap1\n    tag_19:\n      dup2\n      sload\n      dup2\n      mstore\n      swap1\n      0x01\n      add\n      swap1\n      0x20\n      add\n      dup1\n      dup4\n      gt\n      tag_19\n      jumpi\n      dup3\n      swap1\n      sub\n      0x1f\n      and\n      dup3\n      add\n      swap2\n    tag_17:\n      pop\n      pop\n      pop\n      pop\n      pop\n      dup2\n      jump\t// out\n        /* \"ifElse.sol\":355:620  function getDate(uint _value) public returns(string memory){... */\n    tag_12:\n        /* \"ifElse.sol\":400:413  string memory */\n      0x60\n        /* \"ifElse.sol\":572:573  5 */\n      0x05\n        /* \"ifElse.sol\":564:570  _value */\n      dup3\n        /* \"ifElse.sol\":564:573  _value==5 */\n      eq\n        /* \"ifElse.sol\":564:611  _value==5 ? hello = \"five\" : hello = \"not five\" */\n      tag_21\n      jumpi\n        /* \"ifElse.sol\":593:611  hello = \"not five\" */\n      mload(0x40)\n      dup1\n      0x40\n      add\n      0x40\n      mstore\n      dup1\n      0x08\n      dup2\n      mstore\n      0x20\n      add\n      0x6e6f742066697665000000000000000000000000000000000000000000000000\n      dup2\n      mstore\n      pop\n        /* \"ifElse.sol\":593:598  hello */\n      0x00\n        /* \"ifElse.sol\":593:611  hello = \"not five\" */\n      swap1\n      dup2\n      tag_22\n      swap2\n      swap1\n      tag_23\n      jump\t// in\n    tag_22:\n        /* \"ifElse.sol\":564:611  _value==5 ? hello = \"five\" : hello = \"not five\" */\n      jump(tag_24)\n    tag_21:\n        /* \"ifElse.sol\":576:590  hello = \"five\" */\n      mload(0x40)\n      dup1\n      0x40\n      add\n      0x40\n      mstore\n      dup1\n      0x04\n      dup2\n      mstore\n      0x20\n      add\n      0x6669766500000000000000000000000000000000000000000000000000000000\n      dup2\n      mstore\n      pop\n        /* \"ifElse.sol\":576:581  hello */\n      0x00\n        /* \"ifElse.sol\":576:590  hello = \"five\" */\n      swap1\n      dup2\n      tag_25\n      swap2\n      swap1\n      tag_23\n      jump\t// in\n    tag_25:\n        /* \"ifElse.sol\":564:611  _value==5 ? hello = \"five\" : hello = \"not five\" */\n    tag_24:\n        /* \"ifElse.sol\":557:611  return _value==5 ? hello = \"five\" : hello = \"not five\" */\n      dup1\n      sload\n      tag_26\n      swap1\n      tag_15\n      jump\t// in\n    tag_26:\n      dup1\n      0x1f\n      add\n      0x20\n      dup1\n      swap2\n      div\n      mul\n      0x20\n      add\n      mload(0x40)\n      swap1\n      dup2\n      add\n      0x40\n      mstore\n      dup1\n      swap3\n      swap2\n      swap1\n      dup2\n      dup2\n      mstore\n      0x20\n      add\n      dup3\n      dup1\n      sload\n      tag_27\n      swap1\n      tag_15\n      jump\t// in\n    tag_27:\n      dup1\n      iszero\n      tag_28\n      jumpi\n      dup1\n      0x1f\n      lt\n      tag_29\n      jumpi\n      0x0100\n      dup1\n      dup4\n      sload\n      div\n      mul\n      dup4\n      mstore\n      swap2\n      0x20\n      add\n      swap2\n      jump(tag_28)\n    tag_29:\n      dup3\n      add\n      swap2\n      swap1\n      0x00\n      mstore\n      keccak256(0x00, 0x20)\n      swap1\n    tag_30:\n      dup2\n      sload\n      dup2\n      mstore\n      swap1\n      0x01\n      add\n      swap1\n      0x20\n      add\n      dup1\n      dup4\n      gt\n      tag_30\n      jumpi\n      dup3\n      swap1\n      sub\n      0x1f\n      and\n      dup3\n      add\n      swap2\n    tag_28:\n      pop\n      pop\n      pop\n      pop\n      pop\n      swap1\n      pop\n        /* \"ifElse.sol\":355:620  function getDate(uint _value) public returns(string memory){... */\n      swap2\n      swap1\n      pop\n      jump\t// out\n        /* \"#utility.yul\":7:106   */\n    tag_31:\n        /* \"#utility.yul\":59:65   */\n      0x00\n        /* \"#utility.yul\":93:98   */\n      dup2\n        /* \"#utility.yul\":87:99   */\n      mload\n        /* \"#utility.yul\":77:99   */\n      swap1\n      pop\n        /* \"#utility.yul\":7:106   */\n      swap2\n      swap1\n      pop\n      jump\t// out\n        /* \"#utility.yul\":112:281   */\n    tag_32:\n        /* \"#utility.yul\":196:207   */\n      0x00\n        /* \"#utility.yul\":230:236   */\n      dup3\n        /* \"#utility.yul\":225:228   */\n      dup3\n        /* \"#utility.yul\":218:237   */\n      mstore\n        /* \"#utility.yul\":270:274   */\n      0x20\n        /* \"#utility.yul\":265:268   */\n      dup3\n        /* \"#utility.yul\":261:275   */\n      add\n        /* \"#utility.yul\":246:275   */\n      swap1\n      pop\n        /* \"#utility.yul\":112:281   */\n      swap3\n      swap2\n      pop\n      pop\n      jump\t// out\n        /* \"#utility.yul\":287:426   */\n    tag_33:\n        /* \"#utility.yul\":376:382   */\n      dup3\n        /* \"#utility.yul\":371:374   */\n      dup2\n        /* \"#utility.yul\":366:369   */\n      dup4\n        /* \"#utility.yul\":360:383   */\n      mcopy\n        /* \"#utility.yul\":417:418   */\n      0x00\n        /* \"#utility.yul\":408:414   */\n      dup4\n        /* \"#utility.yul\":403:406   */\n      dup4\n        /* \"#utility.yul\":399:415   */\n      add\n        /* \"#utility.yul\":392:419   */\n      mstore\n        /* \"#utility.yul\":287:426   */\n      pop\n      pop\n      pop\n      jump\t// out\n        /* \"#utility.yul\":432:534   */\n    tag_34:\n        /* \"#utility.yul\":473:479   */\n      0x00\n        /* \"#utility.yul\":524:526   */\n      0x1f\n        /* \"#utility.yul\":520:527   */\n      not\n        /* \"#utility.yul\":515:517   */\n      0x1f\n        /* \"#utility.yul\":508:513   */\n      dup4\n        /* \"#utility.yul\":504:518   */\n      add\n        /* \"#utility.yul\":500:528   */\n      and\n        /* \"#utility.yul\":490:528   */\n      swap1\n      pop\n        /* \"#utility.yul\":432:534   */\n      swap2\n      swap1\n      pop\n      jump\t// out\n        /* \"#utility.yul\":540:917   */\n    tag_35:\n        /* \"#utility.yul\":628:631   */\n      0x00\n        /* \"#utility.yul\":656:695   */\n      tag_65\n        /* \"#utility.yul\":689:694   */\n      dup3\n        /* \"#utility.yul\":656:695   */\n      tag_31\n      jump\t// in\n    tag_65:\n        /* \"#utility.yul\":711:782   */\n      tag_66\n        /* \"#utility.yul\":775:781   */\n      dup2\n        /* \"#utility.yul\":770:773   */\n      dup6\n        /* \"#utility.yul\":711:782   */\n      tag_32\n      jump\t// in\n    tag_66:\n        /* \"#utility.yul\":704:782   */\n      swap4\n      pop\n        /* \"#utility.yul\":791:856   */\n      tag_67\n        /* \"#utility.yul\":849:855   */\n      dup2\n        /* \"#utility.yul\":844:847   */\n      dup6\n        /* \"#utility.yul\":837:841   */\n      0x20\n        /* \"#utility.yul\":830:835   */\n      dup7\n        /* \"#utility.yul\":826:842   */\n      add\n        /* \"#utility.yul\":791:856   */\n      tag_33\n      jump\t// in\n    tag_67:\n        /* \"#utility.yul\":881:910   */\n      tag_68\n        /* \"#utility.yul\":903:909   */\n      dup2\n        /* \"#utility.yul\":881:910   */\n      tag_34\n      jump\t// in\n    tag_68:\n        /* \"#utility.yul\":876:879   */\n      dup5\n        /* \"#utility.yul\":872:911   */\n      add\n        /* \"#utility.yul\":865:911   */\n      swap2\n      pop\n        /* \"#utility.yul\":632:917   */\n      pop\n        /* \"#utility.yul\":540:917   */\n      swap3\n      swap2\n      pop\n      pop\n      jump\t// out\n        /* \"#utility.yul\":923:1236   */\n    tag_8:\n        /* \"#utility.yul\":1036:1040   */\n      0x00\n        /* \"#utility.yul\":1074:1076   */\n      0x20\n        /* \"#utility.yul\":1063:1072   */\n      dup3\n        /* \"#utility.yul\":1059:1077   */\n      add\n        /* \"#utility.yul\":1051:1077   */\n      swap1\n      pop\n        /* \"#utility.yul\":1123:1132   */\n      dup2\n        /* \"#utility.yul\":1117:1121   */\n      dup2\n        /* \"#utility.yul\":1113:1133   */\n      sub\n        /* \"#utility.yul\":1109:1110   */\n      0x00\n        /* \"#utility.yul\":1098:1107   */\n      dup4\n        /* \"#utility.yul\":1094:1111   */\n      add\n        /* \"#utility.yul\":1087:1134   */\n      mstore\n        /* \"#utility.yul\":1151:1229   */\n      tag_70\n        /* \"#utility.yul\":1224:1228   */\n      dup2\n        /* \"#utility.yul\":1215:1221   */\n      dup5\n        /* \"#utility.yul\":1151:1229   */\n      tag_35\n      jump\t// in\n    tag_70:\n        /* \"#utility.yul\":1143:1229   */\n      swap1\n      pop\n        /* \"#utility.yul\":923:1236   */\n      swap3\n      swap2\n      pop\n      pop\n      jump\t// out\n        /* \"#utility.yul\":1323:1440   */\n    tag_37:\n        /* \"#utility.yul\":1432:1433   */\n      0x00\n        /* \"#utility.yul\":1429:1430   */\n      0x00\n        /* \"#utility.yul\":1422:1434   */\n      revert\n        /* \"#utility.yul\":1569:1646   */\n    tag_39:\n        /* \"#utility.yul\":1606:1613   */\n      0x00\n        /* \"#utility.yul\":1635:1640   */\n      dup2\n        /* \"#utility.yul\":1624:1640   */\n      swap1\n      pop\n        /* \"#utility.yul\":1569:1646   */\n      swap2\n      swap1\n      pop\n      jump\t// out\n        /* \"#utility.yul\":1652:1774   */\n    tag_40:\n        /* \"#utility.yul\":1725:1749   */\n      tag_76\n        /* \"#utility.yul\":1743:1748   */\n      dup2\n        /* \"#utility.yul\":1725:1749   */\n      tag_39\n      jump\t// in\n    tag_76:\n        /* \"#utility.yul\":1718:1723   */\n      dup2\n        /* \"#utility.yul\":1715:1750   */\n      eq\n        /* \"#utility.yul\":1705:1768   */\n      tag_77\n      jumpi\n        /* \"#utility.yul\":1764:1765   */\n      0x00\n        /* \"#utility.yul\":1761:1762   */\n      0x00\n        /* \"#utility.yul\":1754:1766   */\n      revert\n        /* \"#utility.yul\":1705:1768   */\n    tag_77:\n        /* \"#utility.yul\":1652:1774   */\n      pop\n      jump\t// out\n        /* \"#utility.yul\":1780:1919   */\n    tag_41:\n        /* \"#utility.yul\":1826:1831   */\n      0x00\n        /* \"#utility.yul\":1864:1870   */\n      dup2\n        /* \"#utility.yul\":1851:1871   */\n      calldataload\n        /* \"#utility.yul\":1842:1871   */\n      swap1\n      pop\n        /* \"#utility.yul\":1880:1913   */\n      tag_79\n        /* \"#utility.yul\":1907:1912   */\n      dup2\n        /* \"#utility.yul\":1880:1913   */\n      tag_40\n      jump\t// in\n    tag_79:\n        /* \"#utility.yul\":1780:1919   */\n      swap3\n      swap2\n      pop\n      pop\n      jump\t// out\n        /* \"#utility.yul\":1925:2254   */\n    tag_11:\n        /* \"#utility.yul\":1984:1990   */\n      0x00\n        /* \"#utility.yul\":2033:2035   */\n      0x20\n        /* \"#utility.yul\":2021:2030   */\n      dup3\n        /* \"#utility.yul\":2012:2019   */\n      dup5\n        /* \"#utility.yul\":2008:2031   */\n      sub\n        /* \"#utility.yul\":2004:2036   */\n      slt\n        /* \"#utility.yul\":2001:2120   */\n      iszero\n      tag_81\n      jumpi\n        /* \"#utility.yul\":2039:2118   */\n      tag_82\n      tag_37\n      jump\t// in\n    tag_82:\n        /* \"#utility.yul\":2001:2120   */\n    tag_81:\n        /* \"#utility.yul\":2159:2160   */\n      0x00\n        /* \"#utility.yul\":2184:2237   */\n      tag_83\n        /* \"#utility.yul\":2229:2236   */\n      dup5\n        /* \"#utility.yul\":2220:2226   */\n      dup3\n        /* \"#utility.yul\":2209:2218   */\n      dup6\n        /* \"#utility.yul\":2205:2227   */\n      add\n        /* \"#utility.yul\":2184:2237   */\n      tag_41\n      jump\t// in\n    tag_83:\n        /* \"#utility.yul\":2174:2237   */\n      swap2\n      pop\n        /* \"#utility.yul\":2130:2247   */\n      pop\n        /* \"#utility.yul\":1925:2254   */\n      swap3\n      swap2\n      pop\n      pop\n      jump\t// out\n        /* \"#utility.yul\":2260:2440   */\n    tag_42:\n        /* \"#utility.yul\":2308:2385   */\n      0x4e487b7100000000000000000000000000000000000000000000000000000000\n        /* \"#utility.yul\":2305:2306   */\n      0x00\n        /* \"#utility.yul\":2298:2386   */\n      mstore\n        /* \"#utility.yul\":2405:2409   */\n      0x22\n        /* \"#utility.yul\":2402:2403   */\n      0x04\n        /* \"#utility.yul\":2395:2410   */\n      mstore\n        /* \"#utility.yul\":2429:2433   */\n      0x24\n        /* \"#utility.yul\":2426:2427   */\n      0x00\n        /* \"#utility.yul\":2419:2434   */\n      revert\n        /* \"#utility.yul\":2446:2766   */\n    tag_15:\n        /* \"#utility.yul\":2490:2496   */\n      0x00\n        /* \"#utility.yul\":2527:2528   */\n      0x02\n        /* \"#utility.yul\":2521:2525   */\n      dup3\n        /* \"#utility.yul\":2517:2529   */\n      div\n        /* \"#utility.yul\":2507:2529   */\n      swap1\n      pop\n        /* \"#utility.yul\":2574:2575   */\n      0x01\n        /* \"#utility.yul\":2568:2572   */\n      dup3\n        /* \"#utility.yul\":2564:2576   */\n      and\n        /* \"#utility.yul\":2595:2613   */\n      dup1\n        /* \"#utility.yul\":2585:2666   */\n      tag_86\n      jumpi\n        /* \"#utility.yul\":2651:2655   */\n      0x7f\n        /* \"#utility.yul\":2643:2649   */\n      dup3\n        /* \"#utility.yul\":2639:2656   */\n      and\n        /* \"#utility.yul\":2629:2656   */\n      swap2\n      pop\n        /* \"#utility.yul\":2585:2666   */\n    tag_86:\n        /* \"#utility.yul\":2713:2715   */\n      0x20\n        /* \"#utility.yul\":2705:2711   */\n      dup3\n        /* \"#utility.yul\":2702:2716   */\n      lt\n        /* \"#utility.yul\":2682:2700   */\n      dup2\n        /* \"#utility.yul\":2679:2717   */\n      sub\n        /* \"#utility.yul\":2676:2760   */\n      tag_87\n      jumpi\n        /* \"#utility.yul\":2732:2750   */\n      tag_88\n      tag_42\n      jump\t// in\n    tag_88:\n        /* \"#utility.yul\":2676:2760   */\n    tag_87:\n        /* \"#utility.yul\":2497:2766   */\n      pop\n        /* \"#utility.yul\":2446:2766   */\n      swap2\n      swap1\n      pop\n      jump\t// out\n        /* \"#utility.yul\":2772:2952   */\n    tag_43:\n        /* \"#utility.yul\":2820:2897   */\n      0x4e487b7100000000000000000000000000000000000000000000000000000000\n        /* \"#utility.yul\":2817:2818   */\n      0x00\n        /* \"#utility.yul\":2810:2898   */\n      mstore\n        /* \"#utility.yul\":2917:2921   */\n      0x41\n        /* \"#utility.yul\":2914:2915   */\n      0x04\n        /* \"#utility.yul\":2907:2922   */\n      mstore\n        /* \"#utility.yul\":2941:2945   */\n      0x24\n        /* \"#utility.yul\":2938:2939   */\n      0x00\n        /* \"#utility.yul\":2931:2946   */\n      revert\n        /* \"#utility.yul\":2958:3099   */\n    tag_44:\n        /* \"#utility.yul\":3007:3011   */\n      0x00\n        /* \"#utility.yul\":3030:3033   */\n      dup2\n        /* \"#utility.yul\":3022:3033   */\n      swap1\n      pop\n        /* \"#utility.yul\":3053:3056   */\n      dup2\n        /* \"#utility.yul\":3050:3051   */\n      0x00\n        /* \"#utility.yul\":3043:3057   */\n      mstore\n        /* \"#utility.yul\":3087:3091   */\n      0x20\n        /* \"#utility.yul\":3084:3085   */\n      0x00\n        /* \"#utility.yul\":3074:3092   */\n      keccak256\n        /* \"#utility.yul\":3066:3092   */\n      swap1\n      pop\n        /* \"#utility.yul\":2958:3099   */\n      swap2\n      swap1\n      pop\n      jump\t// out\n        /* \"#utility.yul\":3105:3198   */\n    tag_45:\n        /* \"#utility.yul\":3142:3148   */\n      0x00\n        /* \"#utility.yul\":3189:3191   */\n      0x20\n        /* \"#utility.yul\":3184:3186   */\n      0x1f\n        /* \"#utility.yul\":3177:3182   */\n      dup4\n        /* \"#utility.yul\":3173:3187   */\n      add\n        /* \"#utility.yul\":3169:3192   */\n      div\n        /* \"#utility.yul\":3159:3192   */\n      swap1\n      pop\n        /* \"#utility.yul\":3105:3198   */\n      swap2\n      swap1\n      pop\n      jump\t// out\n        /* \"#utility.yul\":3204:3311   */\n    tag_46:\n        /* \"#utility.yul\":3248:3256   */\n      0x00\n        /* \"#utility.yul\":3298:3303   */\n      dup3\n        /* \"#utility.yul\":3292:3296   */\n      dup3\n        /* \"#utility.yul\":3288:3304   */\n      shl\n        /* \"#utility.yul\":3267:3304   */\n      swap1\n      pop\n        /* \"#utility.yul\":3204:3311   */\n      swap3\n      swap2\n      pop\n      pop\n      jump\t// out\n        /* \"#utility.yul\":3317:3710   */\n    tag_47:\n        /* \"#utility.yul\":3386:3392   */\n      0x00\n        /* \"#utility.yul\":3436:3437   */\n      0x08\n        /* \"#utility.yul\":3424:3434   */\n      dup4\n        /* \"#utility.yul\":3420:3438   */\n      mul\n        /* \"#utility.yul\":3459:3556   */\n      tag_94\n        /* \"#utility.yul\":3489:3555   */\n      0xffffffffffffffffffffffffffffffffffffffffffffffffffffffffffffffff\n        /* \"#utility.yul\":3478:3487   */\n      dup3\n        /* \"#utility.yul\":3459:3556   */\n      tag_46\n      jump\t// in\n    tag_94:\n        /* \"#utility.yul\":3577:3616   */\n      tag_95\n        /* \"#utility.yul\":3607:3615   */\n      dup7\n        /* \"#utility.yul\":3596:3605   */\n      dup4\n        /* \"#utility.yul\":3577:3616   */\n      tag_46\n      jump\t// in\n    tag_95:\n        /* \"#utility.yul\":3565:3616   */\n      swap6\n      pop\n        /* \"#utility.yul\":3649:3653   */\n      dup1\n        /* \"#utility.yul\":3645:3654   */\n      not\n        /* \"#utility.yul\":3638:3643   */\n      dup5\n        /* \"#utility.yul\":3634:3655   */\n      and\n        /* \"#utility.yul\":3625:3655   */\n      swap4\n      pop\n        /* \"#utility.yul\":3698:3702   */\n      dup1\n        /* \"#utility.yul\":3688:3696   */\n      dup7\n        /* \"#utility.yul\":3684:3703   */\n      and\n        /* \"#utility.yul\":3677:3682   */\n      dup5\n        /* \"#utility.yul\":3674:3704   */\n      or\n        /* \"#utility.yul\":3664:3704   */\n      swap3\n      pop\n        /* \"#utility.yul\":3393:3710   */\n      pop\n      pop\n        /* \"#utility.yul\":3317:3710   */\n      swap4\n      swap3\n      pop\n      pop\n      pop\n      jump\t// out\n        /* \"#utility.yul\":3716:3776   */\n    tag_48:\n        /* \"#utility.yul\":3744:3747   */\n      0x00\n        /* \"#utility.yul\":3765:3770   */\n      dup2\n        /* \"#utility.yul\":3758:3770   */\n      swap1\n      pop\n        /* \"#utility.yul\":3716:3776   */\n      swap2\n      swap1\n      pop\n      jump\t// out\n        /* \"#utility.yul\":3782:3924   */\n    tag_49:\n        /* \"#utility.yul\":3832:3841   */\n      0x00\n        /* \"#utility.yul\":3865:3918   */\n      tag_98\n        /* \"#utility.yul\":3883:3917   */\n      tag_99\n        /* \"#utility.yul\":3892:3916   */\n      tag_100\n        /* \"#utility.yul\":3910:3915   */\n      dup5\n        /* \"#utility.yul\":3892:3916   */\n      tag_39\n      jump\t// in\n    tag_100:\n        /* \"#utility.yul\":3883:3917   */\n      tag_48\n      jump\t// in\n    tag_99:\n        /* \"#utility.yul\":3865:3918   */\n      tag_39\n      jump\t// in\n    tag_98:\n        /* \"#utility.yul\":3852:3918   */\n      swap1\n      pop\n        /* \"#utility.yul\":3782:3924   */\n      swap2\n      swap1\n      pop\n      jump\t// out\n        /* \"#utility.yul\":3930:4005   */\n    tag_50:\n        /* \"#utility.yul\":3973:3976   */\n      0x00\n        /* \"#utility.yul\":3994:3999   */\n      dup2\n        /* \"#utility.yul\":3987:3999   */\n      swap1\n      pop\n        /* \"#utility.yul\":3930:4005   */\n      swap2\n      swap1\n      pop\n      jump\t// out\n        /* \"#utility.yul\":4011:4280   */\n    tag_51:\n        /* \"#utility.yul\":4121:4160   */\n      tag_103\n        /* \"#utility.yul\":4152:4159   */\n      dup4\n        /* \"#utility.yul\":4121:4160   */\n      tag_49\n      jump\t// in\n    tag_103:\n        /* \"#utility.yul\":4182:4273   */\n      tag_104\n        /* \"#utility.yul\":4231:4272   */\n      tag_105\n        /* \"#utility.yul\":4255:4271   */\n      dup3\n        /* \"#utility.yul\":4231:4272   */\n      tag_50\n      jump\t// in\n    tag_105:\n        /* \"#utility.yul\":4223:4229   */\n      dup5\n        /* \"#utility.yul\":4216:4220   */\n      dup5\n        /* \"#utility.yul\":4210:4221   */\n      sload\n        /* \"#utility.yul\":4182:4273   */\n      tag_47\n      jump\t// in\n    tag_104:\n        /* \"#utility.yul\":4176:4180   */\n      dup3\n        /* \"#utility.yul\":4169:4274   */\n      sstore\n        /* \"#utility.yul\":4087:4280   */\n      pop\n        /* \"#utility.yul\":4011:4280   */\n      pop\n      pop\n      pop\n      jump\t// out\n        /* \"#utility.yul\":4286:4359   */\n    tag_52:\n        /* \"#utility.yul\":4331:4334   */\n      0x00\n        /* \"#utility.yul\":4352:4353   */\n      0x00\n        /* \"#utility.yul\":4345:4353   */\n      swap1\n      pop\n        /* \"#utility.yul\":4286:4359   */\n      swap1\n      jump\t// out\n        /* \"#utility.yul\":4365:4554   */\n    tag_53:\n        /* \"#utility.yul\":4442:4474   */\n      tag_108\n      tag_52\n      jump\t// in\n    tag_108:\n        /* \"#utility.yul\":4483:4548   */\n      tag_109\n        /* \"#utility.yul\":4541:4547   */\n      dup2\n        /* \"#utility.yul\":4533:4539   */\n      dup5\n        /* \"#utility.yul\":4527:4531   */\n      dup5\n        /* \"#utility.yul\":4483:4548   */\n      tag_51\n      jump\t// in\n    tag_109:\n        /* \"#utility.yul\":4418:4554   */\n      pop\n        /* \"#utility.yul\":4365:4554   */\n      pop\n      pop\n      jump\t// out\n        /* \"#utility.yul\":4560:4746   */\n    tag_54:\n        /* \"#utility.yul\":4620:4740   */\n    tag_111:\n        /* \"#utility.yul\":4637:4640   */\n      dup2\n        /* \"#utility.yul\":4630:4635   */\n      dup2\n        /* \"#utility.yul\":4627:4641   */\n      lt\n        /* \"#utility.yul\":4620:4740   */\n      iszero\n      tag_113\n      jumpi\n        /* \"#utility.yul\":4691:4730   */\n      tag_114\n        /* \"#utility.yul\":4728:4729   */\n      0x00\n        /* \"#utility.yul\":4721:4726   */\n      dup3\n        /* \"#utility.yul\":4691:4730   */\n      tag_53\n      jump\t// in\n    tag_114:\n        /* \"#utility.yul\":4664:4665   */\n      0x01\n        /* \"#utility.yul\":4657:4662   */\n      dup2\n        /* \"#utility.yul\":4653:4666   */\n      add\n        /* \"#utility.yul\":4644:4666   */\n      swap1\n      pop\n        /* \"#utility.yul\":4620:4740   */\n      jump(tag_111)\n    tag_113:\n        /* \"#utility.yul\":4560:4746   */\n      pop\n      pop\n      jump\t// out\n        /* \"#utility.yul\":4752:5295   */\n    tag_55:\n        /* \"#utility.yul\":4853:4855   */\n      0x1f\n        /* \"#utility.yul\":4848:4851   */\n      dup3\n        /* \"#utility.yul\":4845:4856   */\n      gt\n        /* \"#utility.yul\":4842:5288   */\n      iszero\n      tag_116\n      jumpi\n        /* \"#utility.yul\":4887:4925   */\n      tag_117\n        /* \"#utility.yul\":4919:4924   */\n      dup2\n        /* \"#utility.yul\":4887:4925   */\n      tag_44\n      jump\t// in\n    tag_117:\n        /* \"#utility.yul\":4971:5000   */\n      tag_118\n        /* \"#utility.yul\":4989:4999   */\n      dup5\n        /* \"#utility.yul\":4971:5000   */\n      tag_45\n      jump\t// in\n    tag_118:\n        /* \"#utility.yul\":4961:4969   */\n      dup2\n        /* \"#utility.yul\":4957:5001   */\n      add\n        /* \"#utility.yul\":5154:5156   */\n      0x20\n        /* \"#utility.yul\":5142:5152   */\n      dup6\n        /* \"#utility.yul\":5139:5157   */\n      lt\n        /* \"#utility.yul\":5136:5185   */\n      iszero\n      tag_119\n      jumpi\n        /* \"#utility.yul\":5175:5183   */\n      dup2\n        /* \"#utility.yul\":5160:5183   */\n      swap1\n      pop\n        /* \"#utility.yul\":5136:5185   */\n    tag_119:\n        /* \"#utility.yul\":5198:5278   */\n      tag_120\n        /* \"#utility.yul\":5254:5276   */\n      tag_121\n        /* \"#utility.yul\":5272:5275   */\n      dup6\n        /* \"#utility.yul\":5254:5276   */\n      tag_45\n      jump\t// in\n    tag_121:\n        /* \"#utility.yul\":5244:5252   */\n      dup4\n        /* \"#utility.yul\":5240:5277   */\n      add\n        /* \"#utility.yul\":5227:5238   */\n      dup3\n        /* \"#utility.yul\":5198:5278   */\n      tag_54\n      jump\t// in\n    tag_120:\n        /* \"#utility.yul\":4857:5288   */\n      pop\n      pop\n        /* \"#utility.yul\":4842:5288   */\n    tag_116:\n        /* \"#utility.yul\":4752:5295   */\n      pop\n      pop\n      pop\n      jump\t// out\n        /* \"#utility.yul\":5301:5418   */\n    tag_56:\n        /* \"#utility.yul\":5355:5363   */\n      0x00\n        /* \"#utility.yul\":5405:5410   */\n      dup3\n        /* \"#utility.yul\":5399:5403   */\n      dup3\n        /* \"#utility.yul\":5395:5411   */\n      shr\n        /* \"#utility.yul\":5374:5411   */\n      swap1\n      pop\n        /* \"#utility.yul\":5301:5418   */\n      swap3\n      swap2\n      pop\n      pop\n      jump\t// out\n        /* \"#utility.yul\":5424:5593   */\n    tag_57:\n        /* \"#utility.yul\":5468:5474   */\n      0x00\n        /* \"#utility.yul\":5501:5552   */\n      tag_124\n        /* \"#utility.yul\":5549:5550   */\n      0x00\n        /* \"#utility.yul\":5545:5551   */\n      not\n        /* \"#utility.yul\":5537:5542   */\n      dup5\n        /* \"#utility.yul\":5534:5535   */\n      0x08\n        /* \"#utility.yul\":5530:5543   */\n      mul\n        /* \"#utility.yul\":5501:5552   */\n      tag_56\n      jump\t// in\n    tag_124:\n        /* \"#utility.yul\":5497:5553   */\n      not\n        /* \"#utility.yul\":5582:5586   */\n      dup1\n        /* \"#utility.yul\":5576:5580   */\n      dup4\n        /* \"#utility.yul\":5572:5587   */\n      and\n        /* \"#utility.yul\":5562:5587   */\n      swap2\n      pop\n        /* \"#utility.yul\":5475:5593   */\n      pop\n        /* \"#utility.yul\":5424:5593   */\n      swap3\n      swap2\n      pop\n      pop\n      jump\t// out\n        /* \"#utility.yul\":5598:5893   */\n    tag_58:\n        /* \"#utility.yul\":5674:5678   */\n      0x00\n        /* \"#utility.yul\":5820:5849   */\n      tag_126\n        /* \"#utility.yul\":5845:5848   */\n      dup4\n        /* \"#utility.yul\":5839:5843   */\n      dup4\n        /* \"#utility.yul\":5820:5849   */\n      tag_57\n      jump\t// in\n    tag_126:\n        /* \"#utility.yul\":5812:5849   */\n      swap2\n      pop\n        /* \"#utility.yul\":5882:5885   */\n      dup3\n        /* \"#utility.yul\":5879:5880   */\n      0x02\n        /* \"#utility.yul\":5875:5886   */\n      mul\n        /* \"#utility.yul\":5869:5873   */\n      dup3\n        /* \"#utility.yul\":5866:5887   */\n      or\n        /* \"#utility.yul\":5858:5887   */\n      swap1\n      pop\n        /* \"#utility.yul\":5598:5893   */\n      swap3\n      swap2\n      pop\n      pop\n      jump\t// out\n        /* \"#utility.yul\":5898:7293   */\n    tag_23:\n        /* \"#utility.yul\":6015:6052   */\n      tag_128\n        /* \"#utility.yul\":6048:6051   */\n      dup3\n        /* \"#utility.yul\":6015:6052   */\n      tag_31\n      jump\t// in\n    tag_128:\n        /* \"#utility.yul\":6117:6135   */\n      0xffffffffffffffff\n        /* \"#utility.yul\":6109:6115   */\n      dup2\n        /* \"#utility.yul\":6106:6136   */\n      gt\n        /* \"#utility.yul\":6103:6159   */\n      iszero\n      tag_129\n      jumpi\n        /* \"#utility.yul\":6139:6157   */\n      tag_130\n      tag_43\n      jump\t// in\n    tag_130:\n        /* \"#utility.yul\":6103:6159   */\n    tag_129:\n        /* \"#utility.yul\":6183:6221   */\n      tag_131\n        /* \"#utility.yul\":6215:6219   */\n      dup3\n        /* \"#utility.yul\":6209:6220   */\n      sload\n        /* \"#utility.yul\":6183:6221   */\n      tag_15\n      jump\t// in\n    tag_131:\n        /* \"#utility.yul\":6268:6335   */\n      tag_132\n        /* \"#utility.yul\":6328:6334   */\n      dup3\n        /* \"#utility.yul\":6320:6326   */\n      dup3\n        /* \"#utility.yul\":6314:6318   */\n      dup6\n        /* \"#utility.yul\":6268:6335   */\n      tag_55\n      jump\t// in\n    tag_132:\n        /* \"#utility.yul\":6362:6363   */\n      0x00\n        /* \"#utility.yul\":6386:6390   */\n      0x20\n        /* \"#utility.yul\":6373:6390   */\n      swap1\n      pop\n        /* \"#utility.yul\":6418:6420   */\n      0x1f\n        /* \"#utility.yul\":6410:6416   */\n      dup4\n        /* \"#utility.yul\":6407:6421   */\n      gt\n        /* \"#utility.yul\":6435:6436   */\n      0x01\n        /* \"#utility.yul\":6430:7048   */\n      dup2\n      eq\n      tag_134\n      jumpi\n        /* \"#utility.yul\":7092:7093   */\n      0x00\n        /* \"#utility.yul\":7109:7115   */\n      dup5\n        /* \"#utility.yul\":7106:7183   */\n      iszero\n      tag_135\n      jumpi\n        /* \"#utility.yul\":7158:7167   */\n      dup3\n        /* \"#utility.yul\":7153:7156   */\n      dup8\n        /* \"#utility.yul\":7149:7168   */\n      add\n        /* \"#utility.yul\":7143:7169   */\n      mload\n        /* \"#utility.yul\":7134:7169   */\n      swap1\n      pop\n        /* \"#utility.yul\":7106:7183   */\n    tag_135:\n        /* \"#utility.yul\":7209:7276   */\n      tag_136\n        /* \"#utility.yul\":7269:7275   */\n      dup6\n        /* \"#utility.yul\":7262:7267   */\n      dup3\n        /* \"#utility.yul\":7209:7276   */\n      tag_58\n      jump\t// in\n    tag_136:\n        /* \"#utility.yul\":7203:7207   */\n      dup7\n        /* \"#utility.yul\":7196:7277   */\n      sstore\n        /* \"#utility.yul\":7065:7287   */\n      pop\n        /* \"#utility.yul\":6400:7287   */\n      jump(tag_133)\n        /* \"#utility.yul\":6430:7048   */\n    tag_134:\n        /* \"#utility.yul\":6482:6486   */\n      0x1f\n        /* \"#utility.yul\":6478:6487   */\n      not\n        /* \"#utility.yul\":6470:6476   */\n      dup5\n        /* \"#utility.yul\":6466:6488   */\n      and\n        /* \"#utility.yul\":6516:6553   */\n      tag_137\n        /* \"#utility.yul\":6548:6552   */\n      dup7\n        /* \"#utility.yul\":6516:6553   */\n      tag_44\n      jump\t// in\n    tag_137:\n        /* \"#utility.yul\":6575:6576   */\n      0x00\n        /* \"#utility.yul\":6589:6797   */\n    tag_138:\n        /* \"#utility.yul\":6603:6610   */\n      dup3\n        /* \"#utility.yul\":6600:6601   */\n      dup2\n        /* \"#utility.yul\":6597:6611   */\n      lt\n        /* \"#utility.yul\":6589:6797   */\n      iszero\n      tag_140\n      jumpi\n        /* \"#utility.yul\":6682:6691   */\n      dup5\n        /* \"#utility.yul\":6677:6680   */\n      dup10\n        /* \"#utility.yul\":6673:6692   */\n      add\n        /* \"#utility.yul\":6667:6693   */\n      mload\n        /* \"#utility.yul\":6659:6665   */\n      dup3\n        /* \"#utility.yul\":6652:6694   */\n      sstore\n        /* \"#utility.yul\":6733:6734   */\n      0x01\n        /* \"#utility.yul\":6725:6731   */\n      dup3\n        /* \"#utility.yul\":6721:6735   */\n      add\n        /* \"#utility.yul\":6711:6735   */\n      swap2\n      pop\n        /* \"#utility.yul\":6780:6782   */\n      0x20\n        /* \"#utility.yul\":6769:6778   */\n      dup6\n        /* \"#utility.yul\":6765:6783   */\n      add\n        /* \"#utility.yul\":6752:6783   */\n      swap5\n      pop\n        /* \"#utility.yul\":6626:6630   */\n      0x20\n        /* \"#utility.yul\":6623:6624   */\n      dup2\n        /* \"#utility.yul\":6619:6631   */\n      add\n        /* \"#utility.yul\":6614:6631   */\n      swap1\n      pop\n        /* \"#utility.yul\":6589:6797   */\n      jump(tag_138)\n    tag_140:\n        /* \"#utility.yul\":6825:6831   */\n      dup7\n        /* \"#utility.yul\":6816:6823   */\n      dup4\n        /* \"#utility.yul\":6813:6832   */\n      lt\n        /* \"#utility.yul\":6810:6989   */\n      iszero\n      tag_141\n      jumpi\n        /* \"#utility.yul\":6883:6892   */\n      dup5\n        /* \"#utility.yul\":6878:6881   */\n      dup10\n        /* \"#utility.yul\":6874:6893   */\n      add\n        /* \"#utility.yul\":6868:6894   */\n      mload\n        /* \"#utility.yul\":6926:6974   */\n      tag_142\n        /* \"#utility.yul\":6968:6972   */\n      0x1f\n        /* \"#utility.yul\":6960:6966   */\n      dup10\n        /* \"#utility.yul\":6956:6973   */\n      and\n        /* \"#utility.yul\":6945:6954   */\n      dup3\n        /* \"#utility.yul\":6926:6974   */\n      tag_57\n      jump\t// in\n    tag_142:\n        /* \"#utility.yul\":6918:6924   */\n      dup4\n        /* \"#utility.yul\":6911:6975   */\n      sstore\n        /* \"#utility.yul\":6833:6989   */\n      pop\n        /* \"#utility.yul\":6810:6989   */\n    tag_141:\n        /* \"#utility.yul\":7035:7036   */\n      0x01\n        /* \"#utility.yul\":7031:7032   */\n      0x02\n        /* \"#utility.yul\":7023:7029   */\n      dup9\n        /* \"#utility.yul\":7019:7033   */\n      mul\n        /* \"#utility.yul\":7015:7037   */\n      add\n        /* \"#utility.yul\":7009:7013   */\n      dup9\n        /* \"#utility.yul\":7002:7038   */\n      sstore\n        /* \"#utility.yul\":6437:7048   */\n      pop\n      pop\n      pop\n        /* \"#utility.yul\":6400:7287   */\n    tag_133:\n      pop\n        /* \"#utility.yul\":5990:7293   */\n      pop\n      pop\n      pop\n        /* \"#utility.yul\":5898:7293   */\n      pop\n      pop\n      jump\t// out\n\n    auxdata: 0xa2646970667358221220415d2bc192006c577e5d39e6cbfc229d3e3c027509ca1507c595383774b3477864736f6c634300081c0033\n}\n",
				"bytecode": {
					"linkReferences": {},
					"object": "6080604052348015600e575f5ffd5b506106568061001c5f395ff3fe608060405234801561000f575f5ffd5b5060043610610034575f3560e01c806319ff1d21146100385780632b57298b14610056575b5f5ffd5b610040610086565b60405161004d91906102a5565b60405180910390f35b610070600480360381019061006b91906102fc565b610111565b60405161007d91906102a5565b60405180910390f35b5f805461009290610354565b80601f01602080910402602001604051908101604052809291908181526020018280546100be90610354565b80156101095780601f106100e057610100808354040283529160200191610109565b820191905f5260205f20905b8154815290600101906020018083116100ec57829003601f168201915b505050505081565b606060058214610163576040518060400160405280600881526020017f6e6f7420666976650000000000000000000000000000000000000000000000008152505f908161015e9190610551565b6101a7565b6040518060400160405280600481526020017f66697665000000000000000000000000000000000000000000000000000000008152505f90816101a69190610551565b5b80546101b290610354565b80601f01602080910402602001604051908101604052809291908181526020018280546101de90610354565b80156102295780601f1061020057610100808354040283529160200191610229565b820191905f5260205f20905b81548152906001019060200180831161020c57829003601f168201915b50505050509050919050565b5f81519050919050565b5f82825260208201905092915050565b8281835e5f83830152505050565b5f601f19601f8301169050919050565b5f61027782610235565b610281818561023f565b935061029181856020860161024f565b61029a8161025d565b840191505092915050565b5f6020820190508181035f8301526102bd818461026d565b905092915050565b5f5ffd5b5f819050919050565b6102db816102c9565b81146102e5575f5ffd5b50565b5f813590506102f6816102d2565b92915050565b5f60208284031215610311576103106102c5565b5b5f61031e848285016102e8565b91505092915050565b7f4e487b71000000000000000000000000000000000000000000000000000000005f52602260045260245ffd5b5f600282049050600182168061036b57607f821691505b60208210810361037e5761037d610327565b5b50919050565b7f4e487b71000000000000000000000000000000000000000000000000000000005f52604160045260245ffd5b5f819050815f5260205f209050919050565b5f6020601f8301049050919050565b5f82821b905092915050565b5f6008830261040d7fffffffffffffffffffffffffffffffffffffffffffffffffffffffffffffffff826103d2565b61041786836103d2565b95508019841693508086168417925050509392505050565b5f819050919050565b5f61045261044d610448846102c9565b61042f565b6102c9565b9050919050565b5f819050919050565b61046b83610438565b61047f61047782610459565b8484546103de565b825550505050565b5f5f905090565b610496610487565b6104a1818484610462565b505050565b5b818110156104c4576104b95f8261048e565b6001810190506104a7565b5050565b601f821115610509576104da816103b1565b6104e3846103c3565b810160208510156104f2578190505b6105066104fe856103c3565b8301826104a6565b50505b505050565b5f82821c905092915050565b5f6105295f198460080261050e565b1980831691505092915050565b5f610541838361051a565b9150826002028217905092915050565b61055a82610235565b67ffffffffffffffff81111561057357610572610384565b5b61057d8254610354565b6105888282856104c8565b5f60209050601f8311600181146105b9575f84156105a7578287015190505b6105b18582610536565b865550610618565b601f1984166105c7866103b1565b5f5b828110156105ee578489015182556001820191506020850194506020810190506105c9565b8683101561060b5784890151610607601f89168261051a565b8355505b6001600288020188555050505b50505050505056fea2646970667358221220415d2bc192006c577e5d39e6cbfc229d3e3c027509ca1507c595383774b3477864736f6c634300081c0033",
					"opcodes": "PUSH1 0x80 PUSH1 0x40 MSTORE CALLVALUE DUP1 ISZERO PUSH1 0xE JUMPI PUSH0 PUSH0 REVERT JUMPDEST POP PUSH2 0x656 DUP1 PUSH2 0x1C PUSH0 CODECOPY PUSH0 RETURN INVALID PUSH1 0x80 PUSH1 0x40 MSTORE CALLVALUE DUP1 ISZERO PUSH2 0xF JUMPI PUSH0 PUSH0 REVERT JUMPDEST POP PUSH1 0x4 CALLDATASIZE LT PUSH2 0x34 JUMPI PUSH0 CALLDATALOAD PUSH1 0xE0 SHR DUP1 PUSH4 0x19FF1D21 EQ PUSH2 0x38 JUMPI DUP1 PUSH4 0x2B57298B EQ PUSH2 0x56 JUMPI JUMPDEST PUSH0 PUSH0 REVERT JUMPDEST PUSH2 0x40 PUSH2 0x86 JUMP JUMPDEST PUSH1 0x40 MLOAD PUSH2 0x4D SWAP2 SWAP1 PUSH2 0x2A5 JUMP JUMPDEST PUSH1 0x40 MLOAD DUP1 SWAP2 SUB SWAP1 RETURN JUMPDEST PUSH2 0x70 PUSH1 0x4 DUP1 CALLDATASIZE SUB DUP2 ADD SWAP1 PUSH2 0x6B SWAP2 SWAP1 PUSH2 0x2FC JUMP JUMPDEST PUSH2 0x111 JUMP JUMPDEST PUSH1 0x40 MLOAD PUSH2 0x7D SWAP2 SWAP1 PUSH2 0x2A5 JUMP JUMPDEST PUSH1 0x40 MLOAD DUP1 SWAP2 SUB SWAP1 RETURN JUMPDEST PUSH0 DUP1 SLOAD PUSH2 0x92 SWAP1 PUSH2 0x354 JUMP JUMPDEST DUP1 PUSH1 0x1F ADD PUSH1 0x20 DUP1 SWAP2 DIV MUL PUSH1 0x20 ADD PUSH1 0x40 MLOAD SWAP1 DUP2 ADD PUSH1 0x40 MSTORE DUP1 SWAP3 SWAP2 SWAP1 DUP2 DUP2 MSTORE PUSH1 0x20 ADD DUP3 DUP1 SLOAD PUSH2 0xBE SWAP1 PUSH2 0x354 JUMP JUMPDEST DUP1 ISZERO PUSH2 0x109 JUMPI DUP1 PUSH1 0x1F LT PUSH2 0xE0 JUMPI PUSH2 0x100 DUP1 DUP4 SLOAD DIV MUL DUP4 MSTORE SWAP2 PUSH1 0x20 ADD SWAP2 PUSH2 0x109 JUMP JUMPDEST DUP3 ADD SWAP2 SWAP1 PUSH0 MSTORE PUSH1 0x20 PUSH0 KECCAK256 SWAP1 JUMPDEST DUP2 SLOAD DUP2 MSTORE SWAP1 PUSH1 0x1 ADD SWAP1 PUSH1 0x20 ADD DUP1 DUP4 GT PUSH2 0xEC JUMPI DUP3 SWAP1 SUB PUSH1 0x1F AND DUP3 ADD SWAP2 JUMPDEST POP POP POP POP POP DUP2 JUMP JUMPDEST PUSH1 0x60 PUSH1 0x5 DUP3 EQ PUSH2 0x163 JUMPI PUSH1 0x40 MLOAD DUP1 PUSH1 0x40 ADD PUSH1 0x40 MSTORE DUP1 PUSH1 0x8 DUP2 MSTORE PUSH1 0x20 ADD PUSH32 0x6E6F742066697665000000000000000000000000000000000000000000000000 DUP2 MSTORE POP PUSH0 SWAP1 DUP2 PUSH2 0x15E SWAP2 SWAP1 PUSH2 0x551 JUMP JUMPDEST PUSH2 0x1A7 JUMP JUMPDEST PUSH1 0x40 MLOAD DUP1 PUSH1 0x40 ADD PUSH1 0x40 MSTORE DUP1 PUSH1 0x4 DUP2 MSTORE PUSH1 0x20 ADD PUSH32 0x6669766500000000000000000000000000000000000000000000000000000000 DUP2 MSTORE POP PUSH0 SWAP1 DUP2 PUSH2 0x1A6 SWAP2 SWAP1 PUSH2 0x551 JUMP JUMPDEST JUMPDEST DUP1 SLOAD PUSH2 0x1B2 SWAP1 PUSH2 0x354 JUMP JUMPDEST DUP1 PUSH1 0x1F ADD PUSH1 0x20 DUP1 SWAP2 DIV MUL PUSH1 0x20 ADD PUSH1 0x40 MLOAD SWAP1 DUP2 ADD PUSH1 0x40 MSTORE DUP1 SWAP3 SWAP2 SWAP1 DUP2 DUP2 MSTORE PUSH1 0x20 ADD DUP3 DUP1 SLOAD PUSH2 0x1DE SWAP1 PUSH2 0x354 JUMP JUMPDEST DUP1 ISZERO PUSH2 0x229 JUMPI DUP1 PUSH1 0x1F LT PUSH2 0x200 JUMPI PUSH2 0x100 DUP1 DUP4 SLOAD DIV MUL DUP4 MSTORE SWAP2 PUSH1 0x20 ADD SWAP2 PUSH2 0x229 JUMP JUMPDEST DUP3 ADD SWAP2 SWAP1 PUSH0 MSTORE PUSH1 0x20 PUSH0 KECCAK256 SWAP1 JUMPDEST DUP2 SLOAD DUP2 MSTORE SWAP1 PUSH1 0x1 ADD SWAP1 PUSH1 0x20 ADD DUP1 DUP4 GT PUSH2 0x20C JUMPI DUP3 SWAP1 SUB PUSH1 0x1F AND DUP3 ADD SWAP2 JUMPDEST POP POP POP POP POP SWAP1 POP SWAP2 SWAP1 POP JUMP JUMPDEST PUSH0 DUP2 MLOAD SWAP1 POP SWAP2 SWAP1 POP JUMP JUMPDEST PUSH0 DUP3 DUP3 MSTORE PUSH1 0x20 DUP3 ADD SWAP1 POP SWAP3 SWAP2 POP POP JUMP JUMPDEST DUP3 DUP2 DUP4 MCOPY PUSH0 DUP4 DUP4 ADD MSTORE POP POP POP JUMP JUMPDEST PUSH0 PUSH1 0x1F NOT PUSH1 0x1F DUP4 ADD AND SWAP1 POP SWAP2 SWAP1 POP JUMP JUMPDEST PUSH0 PUSH2 0x277 DUP3 PUSH2 0x235 JUMP JUMPDEST PUSH2 0x281 DUP2 DUP6 PUSH2 0x23F JUMP JUMPDEST SWAP4 POP PUSH2 0x291 DUP2 DUP6 PUSH1 0x20 DUP7 ADD PUSH2 0x24F JUMP JUMPDEST PUSH2 0x29A DUP2 PUSH2 0x25D JUMP JUMPDEST DUP5 ADD SWAP2 POP POP SWAP3 SWAP2 POP POP JUMP JUMPDEST PUSH0 PUSH1 0x20 DUP3 ADD SWAP1 POP DUP2 DUP2 SUB PUSH0 DUP4 ADD MSTORE PUSH2 0x2BD DUP2 DUP5 PUSH2 0x26D JUMP JUMPDEST SWAP1 POP SWAP3 SWAP2 POP POP JUMP JUMPDEST PUSH0 PUSH0 REVERT JUMPDEST PUSH0 DUP2 SWAP1 POP SWAP2 SWAP1 POP JUMP JUMPDEST PUSH2 0x2DB DUP2 PUSH2 0x2C9 JUMP JUMPDEST DUP2 EQ PUSH2 0x2E5 JUMPI PUSH0 PUSH0 REVERT JUMPDEST POP JUMP JUMPDEST PUSH0 DUP2 CALLDATALOAD SWAP1 POP PUSH2 0x2F6 DUP2 PUSH2 0x2D2 JUMP JUMPDEST SWAP3 SWAP2 POP POP JUMP JUMPDEST PUSH0 PUSH1 0x20 DUP3 DUP5 SUB SLT ISZERO PUSH2 0x311 JUMPI PUSH2 0x310 PUSH2 0x2C5 JUMP JUMPDEST JUMPDEST PUSH0 PUSH2 0x31E DUP5 DUP3 DUP6 ADD PUSH2 0x2E8 JUMP JUMPDEST SWAP2 POP POP SWAP3 SWAP2 POP POP JUMP JUMPDEST PUSH32 0x4E487B7100000000000000000000000000000000000000000000000000000000 PUSH0 MSTORE PUSH1 0x22 PUSH1 0x4 MSTORE PUSH1 0x24 PUSH0 REVERT JUMPDEST PUSH0 PUSH1 0x2 DUP3 DIV SWAP1 POP PUSH1 0x1 DUP3 AND DUP1 PUSH2 0x36B JUMPI PUSH1 0x7F DUP3 AND SWAP2 POP JUMPDEST PUSH1 0x20 DUP3 LT DUP2 SUB PUSH2 0x37E JUMPI PUSH2 0x37D PUSH2 0x327 JUMP JUMPDEST JUMPDEST POP SWAP2 SWAP1 POP JUMP JUMPDEST PUSH32 0x4E487B7100000000000000000000000000000000000000000000000000000000 PUSH0 MSTORE PUSH1 0x41 PUSH1 0x4 MSTORE PUSH1 0x24 PUSH0 REVERT JUMPDEST PUSH0 DUP2 SWAP1 POP DUP2 PUSH0 MSTORE PUSH1 0x20 PUSH0 KECCAK256 SWAP1 POP SWAP2 SWAP1 POP JUMP JUMPDEST PUSH0 PUSH1 0x20 PUSH1 0x1F DUP4 ADD DIV SWAP1 POP SWAP2 SWAP1 POP JUMP JUMPDEST PUSH0 DUP3 DUP3 SHL SWAP1 POP SWAP3 SWAP2 POP POP JUMP JUMPDEST PUSH0 PUSH1 0x8 DUP4 MUL PUSH2 0x40D PUSH32 0xFFFFFFFFFFFFFFFFFFFFFFFFFFFFFFFFFFFFFFFFFFFFFFFFFFFFFFFFFFFFFFFF DUP3 PUSH2 0x3D2 JUMP JUMPDEST PUSH2 0x417 DUP7 DUP4 PUSH2 0x3D2 JUMP JUMPDEST SWAP6 POP DUP1 NOT DUP5 AND SWAP4 POP DUP1 DUP7 AND DUP5 OR SWAP3 POP POP POP SWAP4 SWAP3 POP POP POP JUMP JUMPDEST PUSH0 DUP2 SWAP1 POP SWAP2 SWAP1 POP JUMP JUMPDEST PUSH0 PUSH2 0x452 PUSH2 0x44D PUSH2 0x448 DUP5 PUSH2 0x2C9 JUMP JUMPDEST PUSH2 0x42F JUMP JUMPDEST PUSH2 0x2C9 JUMP JUMPDEST SWAP1 POP SWAP2 SWAP1 POP JUMP JUMPDEST PUSH0 DUP2 SWAP1 POP SWAP2 SWAP1 POP JUMP JUMPDEST PUSH2 0x46B DUP4 PUSH2 0x438 JUMP JUMPDEST PUSH2 0x47F PUSH2 0x477 DUP3 PUSH2 0x459 JUMP JUMPDEST DUP5 DUP5 SLOAD PUSH2 0x3DE JUMP JUMPDEST DUP3 SSTORE POP POP POP POP JUMP JUMPDEST PUSH0 PUSH0 SWAP1 POP SWAP1 JUMP JUMPDEST PUSH2 0x496 PUSH2 0x487 JUMP JUMPDEST PUSH2 0x4A1 DUP2 DUP5 DUP5 PUSH2 0x462 JUMP JUMPDEST POP POP POP JUMP JUMPDEST JUMPDEST DUP2 DUP2 LT ISZERO PUSH2 0x4C4 JUMPI PUSH2 0x4B9 PUSH0 DUP3 PUSH2 0x48E JUMP JUMPDEST PUSH1 0x1 DUP2 ADD SWAP1 POP PUSH2 0x4A7 JUMP JUMPDEST POP POP JUMP JUMPDEST PUSH1 0x1F DUP3 GT ISZERO PUSH2 0x509 JUMPI PUSH2 0x4DA DUP2 PUSH2 0x3B1 JUMP JUMPDEST PUSH2 0x4E3 DUP5 PUSH2 0x3C3 JUMP JUMPDEST DUP2 ADD PUSH1 0x20 DUP6 LT ISZERO PUSH2 0x4F2 JUMPI DUP2 SWAP1 POP JUMPDEST PUSH2 0x506 PUSH2 0x4FE DUP6 PUSH2 0x3C3 JUMP JUMPDEST DUP4 ADD DUP3 PUSH2 0x4A6 JUMP JUMPDEST POP POP JUMPDEST POP POP POP JUMP JUMPDEST PUSH0 DUP3 DUP3 SHR SWAP1 POP SWAP3 SWAP2 POP POP JUMP JUMPDEST PUSH0 PUSH2 0x529 PUSH0 NOT DUP5 PUSH1 0x8 MUL PUSH2 0x50E JUMP JUMPDEST NOT DUP1 DUP4 AND SWAP2 POP POP SWAP3 SWAP2 POP POP JUMP JUMPDEST PUSH0 PUSH2 0x541 DUP4 DUP4 PUSH2 0x51A JUMP JUMPDEST SWAP2 POP DUP3 PUSH1 0x2 MUL DUP3 OR SWAP1 POP SWAP3 SWAP2 POP POP JUMP JUMPDEST PUSH2 0x55A DUP3 PUSH2 0x235 JUMP JUMPDEST PUSH8 0xFFFFFFFFFFFFFFFF DUP2 GT ISZERO PUSH2 0x573 JUMPI PUSH2 0x572 PUSH2 0x384 JUMP JUMPDEST JUMPDEST PUSH2 0x57D DUP3 SLOAD PUSH2 0x354 JUMP JUMPDEST PUSH2 0x588 DUP3 DUP3 DUP6 PUSH2 0x4C8 JUMP JUMPDEST PUSH0 PUSH1 0x20 SWAP1 POP PUSH1 0x1F DUP4 GT PUSH1 0x1 DUP2 EQ PUSH2 0x5B9 JUMPI PUSH0 DUP5 ISZERO PUSH2 0x5A7 JUMPI DUP3 DUP8 ADD MLOAD SWAP1 POP JUMPDEST PUSH2 0x5B1 DUP6 DUP3 PUSH2 0x536 JUMP JUMPDEST DUP7 SSTORE POP PUSH2 0x618 JUMP JUMPDEST PUSH1 0x1F NOT DUP5 AND PUSH2 0x5C7 DUP7 PUSH2 0x3B1 JUMP JUMPDEST PUSH0 JUMPDEST DUP3 DUP2 LT ISZERO PUSH2 0x5EE JUMPI DUP5 DUP10 ADD MLOAD DUP3 SSTORE PUSH1 0x1 DUP3 ADD SWAP2 POP PUSH1 0x20 DUP6 ADD SWAP5 POP PUSH1 0x20 DUP2 ADD SWAP1 POP PUSH2 0x5C9 JUMP JUMPDEST DUP7 DUP4 LT ISZERO PUSH2 0x60B JUMPI DUP5 DUP10 ADD MLOAD PUSH2 0x607 PUSH1 0x1F DUP10 AND DUP3 PUSH2 0x51A JUMP JUMPDEST DUP4 SSTORE POP JUMPDEST PUSH1 0x1 PUSH1 0x2 DUP9 MUL ADD DUP9 SSTORE POP POP POP JUMPDEST POP POP POP POP POP POP JUMP INVALID LOG2 PUSH5 0x6970667358 0x22 SLT KECCAK256 COINBASE TSTORE 0x2B 0xC1 SWAP3 STOP PUSH13 0x577E5D39E6CBFC229D3E3C0275 MULMOD 0xCA ISZERO SMOD 0xC5 SWAP6 CODESIZE CALLDATACOPY PUSH21 0xB3477864736F6C634300081C003300000000000000 "
				},
				"gasEstimates": {
					"creation": {
						"codeDepositCost": "324400",
						"executionCost": "360",
						"totalCost": "324760"
					},
					"external": {
						"getDate(uint256)": "infinite",
						"hello()": "infinite"
					}
				},
				"methodIdentifiers": {
					"getDate(uint256)": "2b57298b",
					"hello()": "19ff1d21"
				}
			},
			"storageLayout": {
				"storage": [
					{
						"astId": 3,
						"contract": "ifElse.sol:condition",
						"label": "hello",
						"offset": 0,
						"slot": "0",
						"type": "t_string_storage"
					}
				],
				"types": {
					"t_string_storage": {
						"encoding": "bytes",
						"label": "string",
						"numberOfBytes": "32"
					}
				}
			},
			"userdoc": {
				"kind": "user",
				"methods": {},
				"version": 1
			}
		}
	}
}