{
	"visibility.sol": {
		"Child": {
			"abi": [
				{
					"inputs": [],
					"name": "callInternal",
					"outputs": [
						{
							"internalType": "string",
							"name": "",
							"type": "string"
						}
					],
					"stateMutability": "pure",
					"type": "function"
				},
				{
					"inputs": [],
					"name": "callPrivate",
					"outputs": [
						{
							"internalType": "string",
							"name": "",
							"type": "string"
						}
					],
					"stateMutability": "pure",
					"type": "function"
				},
				{
					"inputs": [],
					"name": "externalfunc",
					"outputs": [
						{
							"internalType": "string",
							"name": "",
							"type": "string"
						}
					],
					"stateMutability": "pure",
					"type": "function"
				},
				{
					"inputs": [],
					"name": "testInternal",
					"outputs": [
						{
							"internalType": "string",
							"name": "",
							"type": "string"
						}
					],
					"stateMutability": "pure",
					"type": "function"
				}
			],
			"devdoc": {
				"kind": "dev",
				"methods": {},
				"version": 1
			},
			"evm": {
				"assembly": "    /* \"visibility.sol\":736:871  contract Child is Visibility{... */\n  mstore(0x40, 0x80)\n  callvalue\n  dup1\n  iszero\n  tag_1\n  jumpi\n  0x00\n  dup1\n  revert\ntag_1:\n  pop\n  dataSize(sub_0)\n  dup1\n  dataOffset(sub_0)\n  0x00\n  codecopy\n  0x00\n  return\nstop\n\nsub_0: assembly {\n        /* \"visibility.sol\":736:871  contract Child is Visibility{... */\n      mstore(0x40, 0x80)\n      callvalue\n      dup1\n      iszero\n      tag_1\n      jumpi\n      0x00\n      dup1\n      revert\n    tag_1:\n      pop\n      jumpi(tag_2, lt(calldatasize, 0x04))\n      shr(0xe0, calldataload(0x00))\n      dup1\n      0x2fe0e472\n      eq\n      tag_3\n      jumpi\n      dup1\n      0x8aa573c6\n      eq\n      tag_4\n      jumpi\n      dup1\n      0x93ed3714\n      eq\n      tag_5\n      jumpi\n      dup1\n      0xde20cc28\n      eq\n      tag_6\n      jumpi\n    tag_2:\n      0x00\n      dup1\n      revert\n        /* \"visibility.sol\":296:391  function callPrivate() public pure returns(string memory){... */\n    tag_3:\n      tag_7\n      tag_8\n      jump\t// in\n    tag_7:\n      mload(0x40)\n      tag_9\n      swap2\n      swap1\n      tag_10\n      jump\t// in\n    tag_9:\n      mload(0x40)\n      dup1\n      swap2\n      sub\n      swap1\n      return\n        /* \"visibility.sol\":515:612  function callInternal() public pure returns(string memory){... */\n    tag_4:\n      tag_11\n      tag_12\n      jump\t// in\n    tag_11:\n      mload(0x40)\n      tag_13\n      swap2\n      swap1\n      tag_10\n      jump\t// in\n    tag_13:\n      mload(0x40)\n      dup1\n      swap2\n      sub\n      swap1\n      return\n        /* \"visibility.sol\":771:868  function testInternal() public pure returns(string memory){... */\n    tag_5:\n      tag_14\n      tag_15\n      jump\t// in\n    tag_14:\n      mload(0x40)\n      tag_16\n      swap2\n      swap1\n      tag_10\n      jump\t// in\n    tag_16:\n      mload(0x40)\n      dup1\n      swap2\n      sub\n      swap1\n      return\n        /* \"visibility.sol\":620:729  function externalfunc() external pure returns(string memory){... */\n    tag_6:\n      tag_17\n      tag_18\n      jump\t// in\n    tag_17:\n      mload(0x40)\n      tag_19\n      swap2\n      swap1\n      tag_10\n      jump\t// in\n    tag_19:\n      mload(0x40)\n      dup1\n      swap2\n      sub\n      swap1\n      return\n        /* \"visibility.sol\":296:391  function callPrivate() public pure returns(string memory){... */\n    tag_8:\n        /* \"visibility.sol\":339:352  string memory */\n      0x60\n        /* \"visibility.sol\":371:383  privatefun() */\n      tag_21\n        /* \"visibility.sol\":371:381  privatefun */\n      tag_22\n        /* \"visibility.sol\":371:383  privatefun() */\n      jump\t// in\n    tag_21:\n        /* \"visibility.sol\":364:383  return privatefun() */\n      swap1\n      pop\n        /* \"visibility.sol\":296:391  function callPrivate() public pure returns(string memory){... */\n      swap1\n      jump\t// out\n        /* \"visibility.sol\":515:612  function callInternal() public pure returns(string memory){... */\n    tag_12:\n        /* \"visibility.sol\":559:572  string memory */\n      0x60\n        /* \"visibility.sol\":591:604  internalfun() */\n      tag_24\n        /* \"visibility.sol\":591:602  internalfun */\n      tag_25\n        /* \"visibility.sol\":591:604  internalfun() */\n      jump\t// in\n    tag_24:\n        /* \"visibility.sol\":584:604  return internalfun() */\n      swap1\n      pop\n        /* \"visibility.sol\":515:612  function callInternal() public pure returns(string memory){... */\n      swap1\n      jump\t// out\n        /* \"visibility.sol\":771:868  function testInternal() public pure returns(string memory){... */\n    tag_15:\n        /* \"visibility.sol\":815:828  string memory */\n      0x60\n        /* \"visibility.sol\":847:860  internalfun() */\n      tag_27\n        /* \"visibility.sol\":847:858  internalfun */\n      tag_25\n        /* \"visibility.sol\":847:860  internalfun() */\n      jump\t// in\n    tag_27:\n        /* \"visibility.sol\":840:860  return internalfun() */\n      swap1\n      pop\n        /* \"visibility.sol\":771:868  function testInternal() public pure returns(string memory){... */\n      swap1\n      jump\t// out\n        /* \"visibility.sol\":620:729  function externalfunc() external pure returns(string memory){... */\n    tag_18:\n        /* \"visibility.sol\":666:679  string memory */\n      0x60\n        /* \"visibility.sol\":691:721  return \"this is external func\" */\n      mload(0x40)\n      dup1\n      0x40\n      add\n      0x40\n      mstore\n      dup1\n      0x15\n      dup2\n      mstore\n      0x20\n      add\n      0x746869732069732065787465726e616c2066756e630000000000000000000000\n      dup2\n      mstore\n      pop\n      swap1\n      pop\n        /* \"visibility.sol\":620:729  function externalfunc() external pure returns(string memory){... */\n      swap1\n      jump\t// out\n        /* \"visibility.sol\":183:288  function privatefun() private pure returns(string memory){... */\n    tag_22:\n        /* \"visibility.sol\":226:239  string memory */\n      0x60\n        /* \"visibility.sol\":251:280  return \"this is private func\" */\n      mload(0x40)\n      dup1\n      0x40\n      add\n      0x40\n      mstore\n      dup1\n      0x14\n      dup2\n      mstore\n      0x20\n      add\n      0x7468697320697320707269766174652066756e63000000000000000000000000\n      dup2\n      mstore\n      pop\n      swap1\n      pop\n        /* \"visibility.sol\":183:288  function privatefun() private pure returns(string memory){... */\n      swap1\n      jump\t// out\n        /* \"visibility.sol\":399:507  function internalfun() internal pure returns(string memory){... */\n    tag_25:\n        /* \"visibility.sol\":444:457  string memory */\n      0x60\n        /* \"visibility.sol\":469:499  return \"this is internal func\" */\n      mload(0x40)\n      dup1\n      0x40\n      add\n      0x40\n      mstore\n      dup1\n      0x15\n      dup2\n      mstore\n      0x20\n      add\n      0x7468697320697320696e7465726e616c2066756e630000000000000000000000\n      dup2\n      mstore\n      pop\n      swap1\n      pop\n        /* \"visibility.sol\":399:507  function internalfun() internal pure returns(string memory){... */\n      swap1\n      jump\t// out\n        /* \"#utility.yul\":7:106   */\n    tag_31:\n        /* \"#utility.yul\":59:65   */\n      0x00\n        /* \"#utility.yul\":93:98   */\n      dup2\n        /* \"#utility.yul\":87:99   */\n      mload\n        /* \"#utility.yul\":77:99   */\n      swap1\n      pop\n        /* \"#utility.yul\":7:106   */\n      swap2\n      swap1\n      pop\n      jump\t// out\n        /* \"#utility.yul\":112:281   */\n    tag_32:\n        /* \"#utility.yul\":196:207   */\n      0x00\n        /* \"#utility.yul\":230:236   */\n      dup3\n        /* \"#utility.yul\":225:228   */\n      dup3\n        /* \"#utility.yul\":218:237   */\n      mstore\n        /* \"#utility.yul\":270:274   */\n      0x20\n        /* \"#utility.yul\":265:268   */\n      dup3\n        /* \"#utility.yul\":261:275   */\n      add\n        /* \"#utility.yul\":246:275   */\n      swap1\n      pop\n        /* \"#utility.yul\":112:281   */\n      swap3\n      swap2\n      pop\n      pop\n      jump\t// out\n        /* \"#utility.yul\":287:426   */\n    tag_33:\n        /* \"#utility.yul\":376:382   */\n      dup3\n        /* \"#utility.yul\":371:374   */\n      dup2\n        /* \"#utility.yul\":366:369   */\n      dup4\n        /* \"#utility.yul\":360:383   */\n      mcopy\n        /* \"#utility.yul\":417:418   */\n      0x00\n        /* \"#utility.yul\":408:414   */\n      dup4\n        /* \"#utility.yul\":403:406   */\n      dup4\n        /* \"#utility.yul\":399:415   */\n      add\n        /* \"#utility.yul\":392:419   */\n      mstore\n        /* \"#utility.yul\":287:426   */\n      pop\n      pop\n      pop\n      jump\t// out\n        /* \"#utility.yul\":432:534   */\n    tag_34:\n        /* \"#utility.yul\":473:479   */\n      0x00\n        /* \"#utility.yul\":524:526   */\n      0x1f\n        /* \"#utility.yul\":520:527   */\n      not\n        /* \"#utility.yul\":515:517   */\n      0x1f\n        /* \"#utility.yul\":508:513   */\n      dup4\n        /* \"#utility.yul\":504:518   */\n      add\n        /* \"#utility.yul\":500:528   */\n      and\n        /* \"#utility.yul\":490:528   */\n      swap1\n      pop\n        /* \"#utility.yul\":432:534   */\n      swap2\n      swap1\n      pop\n      jump\t// out\n        /* \"#utility.yul\":540:917   */\n    tag_35:\n        /* \"#utility.yul\":628:631   */\n      0x00\n        /* \"#utility.yul\":656:695   */\n      tag_42\n        /* \"#utility.yul\":689:694   */\n      dup3\n        /* \"#utility.yul\":656:695   */\n      tag_31\n      jump\t// in\n    tag_42:\n        /* \"#utility.yul\":711:782   */\n      tag_43\n        /* \"#utility.yul\":775:781   */\n      dup2\n        /* \"#utility.yul\":770:773   */\n      dup6\n        /* \"#utility.yul\":711:782   */\n      tag_32\n      jump\t// in\n    tag_43:\n        /* \"#utility.yul\":704:782   */\n      swap4\n      pop\n        /* \"#utility.yul\":791:856   */\n      tag_44\n        /* \"#utility.yul\":849:855   */\n      dup2\n        /* \"#utility.yul\":844:847   */\n      dup6\n        /* \"#utility.yul\":837:841   */\n      0x20\n        /* \"#utility.yul\":830:835   */\n      dup7\n        /* \"#utility.yul\":826:842   */\n      add\n        /* \"#utility.yul\":791:856   */\n      tag_33\n      jump\t// in\n    tag_44:\n        /* \"#utility.yul\":881:910   */\n      tag_45\n        /* \"#utility.yul\":903:909   */\n      dup2\n        /* \"#utility.yul\":881:910   */\n      tag_34\n      jump\t// in\n    tag_45:\n        /* \"#utility.yul\":876:879   */\n      dup5\n        /* \"#utility.yul\":872:911   */\n      add\n        /* \"#utility.yul\":865:911   */\n      swap2\n      pop\n        /* \"#utility.yul\":632:917   */\n      pop\n        /* \"#utility.yul\":540:917   */\n      swap3\n      swap2\n      pop\n      pop\n      jump\t// out\n        /* \"#utility.yul\":923:1236   */\n    tag_10:\n        /* \"#utility.yul\":1036:1040   */\n      0x00\n        /* \"#utility.yul\":1074:1076   */\n      0x20\n        /* \"#utility.yul\":1063:1072   */\n      dup3\n        /* \"#utility.yul\":1059:1077   */\n      add\n        /* \"#utility.yul\":1051:1077   */\n      swap1\n      pop\n        /* \"#utility.yul\":1123:1132   */\n      dup2\n        /* \"#utility.yul\":1117:1121   */\n      dup2\n        /* \"#utility.yul\":1113:1133   */\n      sub\n        /* \"#utility.yul\":1109:1110   */\n      0x00\n        /* \"#utility.yul\":1098:1107   */\n      dup4\n        /* \"#utility.yul\":1094:1111   */\n      add\n        /* \"#utility.yul\":1087:1134   */\n      mstore\n        /* \"#utility.yul\":1151:1229   */\n      tag_47\n        /* \"#utility.yul\":1224:1228   */\n      dup2\n        /* \"#utility.yul\":1215:1221   */\n      dup5\n        /* \"#utility.yul\":1151:1229   */\n      tag_35\n      jump\t// in\n    tag_47:\n        /* \"#utility.yul\":1143:1229   */\n      swap1\n      pop\n        /* \"#utility.yul\":923:1236   */\n      swap3\n      swap2\n      pop\n      pop\n      jump\t// out\n\n    auxdata: 0xa26469706673582212203115bdd5df82edad029083538ecabe805d9e10787ab2ce5c300b1a143c6d8a8664736f6c63430008190033\n}\n",
				"bytecode": {
					"linkReferences": {},
					"object": "6080604052348015600e575f80fd5b506102708061001c5f395ff3fe608060405234801561000f575f80fd5b506004361061004a575f3560e01c80632fe0e4721461004e5780638aa573c61461006c57806393ed37141461008a578063de20cc28146100a8575b5f80fd5b6100566100c6565b604051610063919061021a565b60405180910390f35b6100746100d5565b604051610081919061021a565b60405180910390f35b6100926100e4565b60405161009f919061021a565b60405180910390f35b6100b06100f3565b6040516100bd919061021a565b60405180910390f35b60606100d0610130565b905090565b60606100df61016d565b905090565b60606100ee61016d565b905090565b60606040518060400160405280601581526020017f746869732069732065787465726e616c2066756e630000000000000000000000815250905090565b60606040518060400160405280601481526020017f7468697320697320707269766174652066756e63000000000000000000000000815250905090565b60606040518060400160405280601581526020017f7468697320697320696e7465726e616c2066756e630000000000000000000000815250905090565b5f81519050919050565b5f82825260208201905092915050565b8281835e5f83830152505050565b5f601f19601f8301169050919050565b5f6101ec826101aa565b6101f681856101b4565b93506102068185602086016101c4565b61020f816101d2565b840191505092915050565b5f6020820190508181035f83015261023281846101e2565b90509291505056fea26469706673582212203115bdd5df82edad029083538ecabe805d9e10787ab2ce5c300b1a143c6d8a8664736f6c63430008190033",
					"opcodes": "PUSH1 0x80 PUSH1 0x40 MSTORE CALLVALUE DUP1 ISZERO PUSH1 0xE JUMPI PUSH0 DUP1 REVERT JUMPDEST POP PUSH2 0x270 DUP1 PUSH2 0x1C PUSH0 CODECOPY PUSH0 RETURN INVALID PUSH1 0x80 PUSH1 0x40 MSTORE CALLVALUE DUP1 ISZERO PUSH2 0xF JUMPI PUSH0 DUP1 REVERT JUMPDEST POP PUSH1 0x4 CALLDATASIZE LT PUSH2 0x4A JUMPI PUSH0 CALLDATALOAD PUSH1 0xE0 SHR DUP1 PUSH4 0x2FE0E472 EQ PUSH2 0x4E JUMPI DUP1 PUSH4 0x8AA573C6 EQ PUSH2 0x6C JUMPI DUP1 PUSH4 0x93ED3714 EQ PUSH2 0x8A JUMPI DUP1 PUSH4 0xDE20CC28 EQ PUSH2 0xA8 JUMPI JUMPDEST PUSH0 DUP1 REVERT JUMPDEST PUSH2 0x56 PUSH2 0xC6 JUMP JUMPDEST PUSH1 0x40 MLOAD PUSH2 0x63 SWAP2 SWAP1 PUSH2 0x21A JUMP JUMPDEST PUSH1 0x40 MLOAD DUP1 SWAP2 SUB SWAP1 RETURN JUMPDEST PUSH2 0x74 PUSH2 0xD5 JUMP JUMPDEST PUSH1 0x40 MLOAD PUSH2 0x81 SWAP2 SWAP1 PUSH2 0x21A JUMP JUMPDEST PUSH1 0x40 MLOAD DUP1 SWAP2 SUB SWAP1 RETURN JUMPDEST PUSH2 0x92 PUSH2 0xE4 JUMP JUMPDEST PUSH1 0x40 MLOAD PUSH2 0x9F SWAP2 SWAP1 PUSH2 0x21A JUMP JUMPDEST PUSH1 0x40 MLOAD DUP1 SWAP2 SUB SWAP1 RETURN JUMPDEST PUSH2 0xB0 PUSH2 0xF3 JUMP JUMPDEST PUSH1 0x40 MLOAD PUSH2 0xBD SWAP2 SWAP1 PUSH2 0x21A JUMP JUMPDEST PUSH1 0x40 MLOAD DUP1 SWAP2 SUB SWAP1 RETURN JUMPDEST PUSH1 0x60 PUSH2 0xD0 PUSH2 0x130 JUMP JUMPDEST SWAP1 POP SWAP1 JUMP JUMPDEST PUSH1 0x60 PUSH2 0xDF PUSH2 0x16D JUMP JUMPDEST SWAP1 POP SWAP1 JUMP JUMPDEST PUSH1 0x60 PUSH2 0xEE PUSH2 0x16D JUMP JUMPDEST SWAP1 POP SWAP1 JUMP JUMPDEST PUSH1 0x60 PUSH1 0x40 MLOAD DUP1 PUSH1 0x40 ADD PUSH1 0x40 MSTORE DUP1 PUSH1 0x15 DUP2 MSTORE PUSH1 0x20 ADD PUSH32 0x746869732069732065787465726E616C2066756E630000000000000000000000 DUP2 MSTORE POP SWAP1 POP SWAP1 JUMP JUMPDEST PUSH1 0x60 PUSH1 0x40 MLOAD DUP1 PUSH1 0x40 ADD PUSH1 0x40 MSTORE DUP1 PUSH1 0x14 DUP2 MSTORE PUSH1 0x20 ADD PUSH32 0x7468697320697320707269766174652066756E63000000000000000000000000 DUP2 MSTORE POP SWAP1 POP SWAP1 JUMP JUMPDEST PUSH1 0x60 PUSH1 0x40 MLOAD DUP1 PUSH1 0x40 ADD PUSH1 0x40 MSTORE DUP1 PUSH1 0x15 DUP2 MSTORE PUSH1 0x20 ADD PUSH32 0x7468697320697320696E7465726E616C2066756E630000000000000000000000 DUP2 MSTORE POP SWAP1 POP SWAP1 JUMP JUMPDEST PUSH0 DUP2 MLOAD SWAP1 POP SWAP2 SWAP1 POP JUMP JUMPDEST PUSH0 DUP3 DUP3 MSTORE PUSH1 0x20 DUP3 ADD SWAP1 POP SWAP3 SWAP2 POP POP JUMP JUMPDEST DUP3 DUP2 DUP4 MCOPY PUSH0 DUP4 DUP4 ADD MSTORE POP POP POP JUMP JUMPDEST PUSH0 PUSH1 0x1F NOT PUSH1 0x1F DUP4 ADD AND SWAP1 POP SWAP2 SWAP1 POP JUMP JUMPDEST PUSH0 PUSH2 0x1EC DUP3 PUSH2 0x1AA JUMP JUMPDEST PUSH2 0x1F6 DUP2 DUP6 PUSH2 0x1B4 JUMP JUMPDEST SWAP4 POP PUSH2 0x206 DUP2 DUP6 PUSH1 0x20 DUP7 ADD PUSH2 0x1C4 JUMP JUMPDEST PUSH2 0x20F DUP2 PUSH2 0x1D2 JUMP JUMPDEST DUP5 ADD SWAP2 POP POP SWAP3 SWAP2 POP POP JUMP JUMPDEST PUSH0 PUSH1 0x20 DUP3 ADD SWAP1 POP DUP2 DUP2 SUB PUSH0 DUP4 ADD MSTORE PUSH2 0x232 DUP2 DUP5 PUSH2 0x1E2 JUMP JUMPDEST SWAP1 POP SWAP3 SWAP2 POP POP JUMP INVALID LOG2 PUSH5 0x6970667358 0x22 SLT KECCAK256 BALANCE ISZERO 0xBD 0xD5 0xDF DUP3 0xED 0xAD MUL SWAP1 DUP4 MSTORE8 DUP15 0xCA 0xBE DUP1 TSTORE SWAP15 LT PUSH25 0x7AB2CE5C300B1A143C6D8A8664736F6C634300081900330000 "
				},
				"gasEstimates": {
					"creation": {
						"codeDepositCost": "124800",
						"executionCost": "169",
						"totalCost": "124969"
					},
					"external": {
						"callInternal()": "infinite",
						"callPrivate()": "infinite",
						"externalfunc()": "infinite",
						"testInternal()": "infinite"
					}
				},
				"methodIdentifiers": {
					"callInternal()": "8aa573c6",
					"callPrivate()": "2fe0e472",
					"externalfunc()": "de20cc28",
					"testInternal()": "93ed3714"
				}
			},
			"storageLayout": {
				"storage": [],
				"types": null
			},
			"userdoc": {
				"kind": "user",
				"methods": {},
				"version": 1
			}
		}
	}
}