{
	"super.sol": {
		"A": {
			"abi": [
				{
					"anonymous": false,
					"inputs": [
						{
							"indexed": false,
							"internalType": "string",
							"name": "message",
							"type": "string"
						}
					],
					"name": "Log",
					"type": "event"
				},
				{
					"inputs": [],
					"name": "bar",
					"outputs": [],
					"stateMutability": "nonpayable",
					"type": "function"
				},
				{
					"inputs": [],
					"name": "foo",
					"outputs": [],
					"stateMutability": "nonpayable",
					"type": "function"
				}
			],
			"devdoc": {
				"kind": "dev",
				"methods": {},
				"version": 1
			},
			"evm": {
				"assembly": "    /* \"super.sol\":61:273  contract A{... */\n  mstore(0x40, 0x80)\n  callvalue\n  dup1\n  iszero\n  tag_1\n  jumpi\n  0x00\n  dup1\n  revert\ntag_1:\n  pop\n  dataSize(sub_0)\n  dup1\n  dataOffset(sub_0)\n  0x00\n  codecopy\n  0x00\n  return\nstop\n\nsub_0: assembly {\n        /* \"super.sol\":61:273  contract A{... */\n      mstore(0x40, 0x80)\n      callvalue\n      dup1\n      iszero\n      tag_1\n      jumpi\n      0x00\n      dup1\n      revert\n    tag_1:\n      pop\n      jumpi(tag_2, lt(calldatasize, 0x04))\n      shr(0xe0, calldataload(0x00))\n      dup1\n      0xc2985578\n      eq\n      tag_3\n      jumpi\n      dup1\n      0xfebb0f7e\n      eq\n      tag_4\n      jumpi\n    tag_2:\n      0x00\n      dup1\n      revert\n        /* \"super.sol\":112:189  function foo() public virtual {... */\n    tag_3:\n      tag_5\n      tag_6\n      jump\t// in\n    tag_5:\n      stop\n        /* \"super.sol\":197:270  function bar() public virtual {... */\n    tag_4:\n      tag_7\n      tag_8\n      jump\t// in\n    tag_7:\n      stop\n        /* \"super.sol\":112:189  function foo() public virtual {... */\n    tag_6:\n        /* \"super.sol\":158:181  Log(\"A. foo is called\") */\n      0xcf34ef537ac33ee1ac626ca1587a0a7e8e51561e5514f8cb36afa1c5102b3bab\n      mload(0x40)\n      tag_10\n      swap1\n      tag_11\n      jump\t// in\n    tag_10:\n      mload(0x40)\n      dup1\n      swap2\n      sub\n      swap1\n      log1\n        /* \"super.sol\":112:189  function foo() public virtual {... */\n      jump\t// out\n        /* \"super.sol\":197:270  function bar() public virtual {... */\n    tag_8:\n        /* \"super.sol\":243:262  Log(\"A.bar called\") */\n      0xcf34ef537ac33ee1ac626ca1587a0a7e8e51561e5514f8cb36afa1c5102b3bab\n      mload(0x40)\n      tag_13\n      swap1\n      tag_14\n      jump\t// in\n    tag_13:\n      mload(0x40)\n      dup1\n      swap2\n      sub\n      swap1\n      log1\n        /* \"super.sol\":197:270  function bar() public virtual {... */\n      jump\t// out\n        /* \"#utility.yul\":7:176   */\n    tag_15:\n        /* \"#utility.yul\":91:102   */\n      0x00\n        /* \"#utility.yul\":125:131   */\n      dup3\n        /* \"#utility.yul\":120:123   */\n      dup3\n        /* \"#utility.yul\":113:132   */\n      mstore\n        /* \"#utility.yul\":165:169   */\n      0x20\n        /* \"#utility.yul\":160:163   */\n      dup3\n        /* \"#utility.yul\":156:170   */\n      add\n        /* \"#utility.yul\":141:170   */\n      swap1\n      pop\n        /* \"#utility.yul\":7:176   */\n      swap3\n      swap2\n      pop\n      pop\n      jump\t// out\n        /* \"#utility.yul\":182:348   */\n    tag_16:\n        /* \"#utility.yul\":322:340   */\n      0x412e20666f6f2069732063616c6c656400000000000000000000000000000000\n        /* \"#utility.yul\":318:319   */\n      0x00\n        /* \"#utility.yul\":310:316   */\n      dup3\n        /* \"#utility.yul\":306:320   */\n      add\n        /* \"#utility.yul\":299:341   */\n      mstore\n        /* \"#utility.yul\":182:348   */\n      pop\n      jump\t// out\n        /* \"#utility.yul\":354:720   */\n    tag_17:\n        /* \"#utility.yul\":496:499   */\n      0x00\n        /* \"#utility.yul\":517:584   */\n      tag_24\n        /* \"#utility.yul\":581:583   */\n      0x10\n        /* \"#utility.yul\":576:579   */\n      dup4\n        /* \"#utility.yul\":517:584   */\n      tag_15\n      jump\t// in\n    tag_24:\n        /* \"#utility.yul\":510:584   */\n      swap2\n      pop\n        /* \"#utility.yul\":593:686   */\n      tag_25\n        /* \"#utility.yul\":682:685   */\n      dup3\n        /* \"#utility.yul\":593:686   */\n      tag_16\n      jump\t// in\n    tag_25:\n        /* \"#utility.yul\":711:713   */\n      0x20\n        /* \"#utility.yul\":706:709   */\n      dup3\n        /* \"#utility.yul\":702:714   */\n      add\n        /* \"#utility.yul\":695:714   */\n      swap1\n      pop\n        /* \"#utility.yul\":354:720   */\n      swap2\n      swap1\n      pop\n      jump\t// out\n        /* \"#utility.yul\":726:1145   */\n    tag_11:\n        /* \"#utility.yul\":892:896   */\n      0x00\n        /* \"#utility.yul\":930:932   */\n      0x20\n        /* \"#utility.yul\":919:928   */\n      dup3\n        /* \"#utility.yul\":915:933   */\n      add\n        /* \"#utility.yul\":907:933   */\n      swap1\n      pop\n        /* \"#utility.yul\":979:988   */\n      dup2\n        /* \"#utility.yul\":973:977   */\n      dup2\n        /* \"#utility.yul\":969:989   */\n      sub\n        /* \"#utility.yul\":965:966   */\n      0x00\n        /* \"#utility.yul\":954:963   */\n      dup4\n        /* \"#utility.yul\":950:967   */\n      add\n        /* \"#utility.yul\":943:990   */\n      mstore\n        /* \"#utility.yul\":1007:1138   */\n      tag_27\n        /* \"#utility.yul\":1133:1137   */\n      dup2\n        /* \"#utility.yul\":1007:1138   */\n      tag_17\n      jump\t// in\n    tag_27:\n        /* \"#utility.yul\":999:1138   */\n      swap1\n      pop\n        /* \"#utility.yul\":726:1145   */\n      swap2\n      swap1\n      pop\n      jump\t// out\n        /* \"#utility.yul\":1151:1313   */\n    tag_18:\n        /* \"#utility.yul\":1291:1305   */\n      0x412e6261722063616c6c65640000000000000000000000000000000000000000\n        /* \"#utility.yul\":1287:1288   */\n      0x00\n        /* \"#utility.yul\":1279:1285   */\n      dup3\n        /* \"#utility.yul\":1275:1289   */\n      add\n        /* \"#utility.yul\":1268:1306   */\n      mstore\n        /* \"#utility.yul\":1151:1313   */\n      pop\n      jump\t// out\n        /* \"#utility.yul\":1319:1685   */\n    tag_19:\n        /* \"#utility.yul\":1461:1464   */\n      0x00\n        /* \"#utility.yul\":1482:1549   */\n      tag_30\n        /* \"#utility.yul\":1546:1548   */\n      0x0c\n        /* \"#utility.yul\":1541:1544   */\n      dup4\n        /* \"#utility.yul\":1482:1549   */\n      tag_15\n      jump\t// in\n    tag_30:\n        /* \"#utility.yul\":1475:1549   */\n      swap2\n      pop\n        /* \"#utility.yul\":1558:1651   */\n      tag_31\n        /* \"#utility.yul\":1647:1650   */\n      dup3\n        /* \"#utility.yul\":1558:1651   */\n      tag_18\n      jump\t// in\n    tag_31:\n        /* \"#utility.yul\":1676:1678   */\n      0x20\n        /* \"#utility.yul\":1671:1674   */\n      dup3\n        /* \"#utility.yul\":1667:1679   */\n      add\n        /* \"#utility.yul\":1660:1679   */\n      swap1\n      pop\n        /* \"#utility.yul\":1319:1685   */\n      swap2\n      swap1\n      pop\n      jump\t// out\n        /* \"#utility.yul\":1691:2110   */\n    tag_14:\n        /* \"#utility.yul\":1857:1861   */\n      0x00\n        /* \"#utility.yul\":1895:1897   */\n      0x20\n        /* \"#utility.yul\":1884:1893   */\n      dup3\n        /* \"#utility.yul\":1880:1898   */\n      add\n        /* \"#utility.yul\":1872:1898   */\n      swap1\n      pop\n        /* \"#utility.yul\":1944:1953   */\n      dup2\n        /* \"#utility.yul\":1938:1942   */\n      dup2\n        /* \"#utility.yul\":1934:1954   */\n      sub\n        /* \"#utility.yul\":1930:1931   */\n      0x00\n        /* \"#utility.yul\":1919:1928   */\n      dup4\n        /* \"#utility.yul\":1915:1932   */\n      add\n        /* \"#utility.yul\":1908:1955   */\n      mstore\n        /* \"#utility.yul\":1972:2103   */\n      tag_33\n        /* \"#utility.yul\":2098:2102   */\n      dup2\n        /* \"#utility.yul\":1972:2103   */\n      tag_19\n      jump\t// in\n    tag_33:\n        /* \"#utility.yul\":1964:2103   */\n      swap1\n      pop\n        /* \"#utility.yul\":1691:2110   */\n      swap2\n      swap1\n      pop\n      jump\t// out\n\n    auxdata: 0xa2646970667358221220b260315ecbfeb6028cbf7a09e70b49b5e35f10fcc8a22d3b0f0eec3741d1eb2764736f6c63430008190033\n}\n",
				"bytecode": {
					"linkReferences": {},
					"object": "6080604052348015600e575f80fd5b506101d08061001c5f395ff3fe608060405234801561000f575f80fd5b5060043610610034575f3560e01c8063c298557814610038578063febb0f7e14610042575b5f80fd5b61004061004c565b005b61004a610083565b005b7fcf34ef537ac33ee1ac626ca1587a0a7e8e51561e5514f8cb36afa1c5102b3bab60405161007990610114565b60405180910390a1565b7fcf34ef537ac33ee1ac626ca1587a0a7e8e51561e5514f8cb36afa1c5102b3bab6040516100b09061017c565b60405180910390a1565b5f82825260208201905092915050565b7f412e20666f6f2069732063616c6c6564000000000000000000000000000000005f82015250565b5f6100fe6010836100ba565b9150610109826100ca565b602082019050919050565b5f6020820190508181035f83015261012b816100f2565b9050919050565b7f412e6261722063616c6c656400000000000000000000000000000000000000005f82015250565b5f610166600c836100ba565b915061017182610132565b602082019050919050565b5f6020820190508181035f8301526101938161015a565b905091905056fea2646970667358221220b260315ecbfeb6028cbf7a09e70b49b5e35f10fcc8a22d3b0f0eec3741d1eb2764736f6c63430008190033",
					"opcodes": "PUSH1 0x80 PUSH1 0x40 MSTORE CALLVALUE DUP1 ISZERO PUSH1 0xE JUMPI PUSH0 DUP1 REVERT JUMPDEST POP PUSH2 0x1D0 DUP1 PUSH2 0x1C PUSH0 CODECOPY PUSH0 RETURN INVALID PUSH1 0x80 PUSH1 0x40 MSTORE CALLVALUE DUP1 ISZERO PUSH2 0xF JUMPI PUSH0 DUP1 REVERT JUMPDEST POP PUSH1 0x4 CALLDATASIZE LT PUSH2 0x34 JUMPI PUSH0 CALLDATALOAD PUSH1 0xE0 SHR DUP1 PUSH4 0xC2985578 EQ PUSH2 0x38 JUMPI DUP1 PUSH4 0xFEBB0F7E EQ PUSH2 0x42 JUMPI JUMPDEST PUSH0 DUP1 REVERT JUMPDEST PUSH2 0x40 PUSH2 0x4C JUMP JUMPDEST STOP JUMPDEST PUSH2 0x4A PUSH2 0x83 JUMP JUMPDEST STOP JUMPDEST PUSH32 0xCF34EF537AC33EE1AC626CA1587A0A7E8E51561E5514F8CB36AFA1C5102B3BAB PUSH1 0x40 MLOAD PUSH2 0x79 SWAP1 PUSH2 0x114 JUMP JUMPDEST PUSH1 0x40 MLOAD DUP1 SWAP2 SUB SWAP1 LOG1 JUMP JUMPDEST PUSH32 0xCF34EF537AC33EE1AC626CA1587A0A7E8E51561E5514F8CB36AFA1C5102B3BAB PUSH1 0x40 MLOAD PUSH2 0xB0 SWAP1 PUSH2 0x17C JUMP JUMPDEST PUSH1 0x40 MLOAD DUP1 SWAP2 SUB SWAP1 LOG1 JUMP JUMPDEST PUSH0 DUP3 DUP3 MSTORE PUSH1 0x20 DUP3 ADD SWAP1 POP SWAP3 SWAP2 POP POP JUMP JUMPDEST PUSH32 0x412E20666F6F2069732063616C6C656400000000000000000000000000000000 PUSH0 DUP3 ADD MSTORE POP JUMP JUMPDEST PUSH0 PUSH2 0xFE PUSH1 0x10 DUP4 PUSH2 0xBA JUMP JUMPDEST SWAP2 POP PUSH2 0x109 DUP3 PUSH2 0xCA JUMP JUMPDEST PUSH1 0x20 DUP3 ADD SWAP1 POP SWAP2 SWAP1 POP JUMP JUMPDEST PUSH0 PUSH1 0x20 DUP3 ADD SWAP1 POP DUP2 DUP2 SUB PUSH0 DUP4 ADD MSTORE PUSH2 0x12B DUP2 PUSH2 0xF2 JUMP JUMPDEST SWAP1 POP SWAP2 SWAP1 POP JUMP JUMPDEST PUSH32 0x412E6261722063616C6C65640000000000000000000000000000000000000000 PUSH0 DUP3 ADD MSTORE POP JUMP JUMPDEST PUSH0 PUSH2 0x166 PUSH1 0xC DUP4 PUSH2 0xBA JUMP JUMPDEST SWAP2 POP PUSH2 0x171 DUP3 PUSH2 0x132 JUMP JUMPDEST PUSH1 0x20 DUP3 ADD SWAP1 POP SWAP2 SWAP1 POP JUMP JUMPDEST PUSH0 PUSH1 0x20 DUP3 ADD SWAP1 POP DUP2 DUP2 SUB PUSH0 DUP4 ADD MSTORE PUSH2 0x193 DUP2 PUSH2 0x15A JUMP JUMPDEST SWAP1 POP SWAP2 SWAP1 POP JUMP INVALID LOG2 PUSH5 0x6970667358 0x22 SLT KECCAK256 0xB2 PUSH1 0x31 MCOPY 0xCB INVALID 0xB6 MUL DUP13 0xBF PUSH27 0x9E70B49B5E35F10FCC8A22D3B0F0EEC3741D1EB2764736F6C6343 STOP ADDMOD NOT STOP CALLER "
				},
				"gasEstimates": {
					"creation": {
						"codeDepositCost": "92800",
						"executionCost": "139",
						"totalCost": "92939"
					},
					"external": {
						"bar()": "1940",
						"foo()": "1918"
					}
				},
				"methodIdentifiers": {
					"bar()": "febb0f7e",
					"foo()": "c2985578"
				}
			},
			"storageLayout": {
				"storage": [],
				"types": null
			},
			"userdoc": {
				"kind": "user",
				"methods": {},
				"version": 1
			}
		}
	}
}