{
	"data": {
		"bytecode": {
			"linkReferences": {},
			"object": "608060405260025f5560056001553480156017575f5ffd5b50610231806100255f395ff3fe608060405234801561000f575f5ffd5b506004361061003f575f3560e01c806315d4266c146100435780633b9eac4b14610061578063de2927891461007f575b5f5ffd5b61004b61009e565b604051610058919061011a565b60405180910390f35b6100696100a4565b604051610076919061011a565b60405180910390f35b6100876100a9565b604051610095929190610133565b60405180910390f35b60015481565b5f5481565b5f5f60055f5f8282546100bc9190610187565b92505081905550600560015f8282546100d59190610187565b925050819055506001545f546100eb91906101ba565b91506001545f546100fc9190610187565b90509091565b5f819050919050565b61011481610102565b82525050565b5f60208201905061012d5f83018461010b565b92915050565b5f6040820190506101465f83018561010b565b610153602083018461010b565b9392505050565b7f4e487b71000000000000000000000000000000000000000000000000000000005f52601160045260245ffd5b5f61019182610102565b915061019c83610102565b92508282019050808211156101b4576101b361015a565b5b92915050565b5f6101c482610102565b91506101cf83610102565b92508282026101dd81610102565b915082820484148315176101f4576101f361015a565b5b509291505056fea26469706673582212200f85d943f1020b09796e20291dcb3ff51b7970456d9278a6cb0f783499b7005864736f6c634300081c0033",
			"opcodes": "PUSH1 0x80 PUSH1 0x40 MSTORE PUSH1 0x2 PUSH0 SSTORE PUSH1 0x5 PUSH1 0x1 SSTORE CALLVALUE DUP1 ISZERO PUSH1 0x17 JUMPI PUSH0 PUSH0 REVERT JUMPDEST POP PUSH2 0x231 DUP1 PUSH2 0x25 PUSH0 CODECOPY PUSH0 RETURN INVALID PUSH1 0x80 PUSH1 0x40 MSTORE CALLVALUE DUP1 ISZERO PUSH2 0xF JUMPI PUSH0 PUSH0 REVERT JUMPDEST POP PUSH1 0x4 CALLDATASIZE LT PUSH2 0x3F JUMPI PUSH0 CALLDATALOAD PUSH1 0xE0 SHR DUP1 PUSH4 0x15D4266C EQ PUSH2 0x43 JUMPI DUP1 PUSH4 0x3B9EAC4B EQ PUSH2 0x61 JUMPI DUP1 PUSH4 0xDE292789 EQ PUSH2 0x7F JUMPI JUMPDEST PUSH0 PUSH0 REVERT JUMPDEST PUSH2 0x4B PUSH2 0x9E JUMP JUMPDEST PUSH1 0x40 MLOAD PUSH2 0x58 SWAP2 SWAP1 PUSH2 0x11A JUMP JUMPDEST PUSH1 0x40 MLOAD DUP1 SWAP2 SUB SWAP1 RETURN JUMPDEST PUSH2 0x69 PUSH2 0xA4 JUMP JUMPDEST PUSH1 0x40 MLOAD PUSH2 0x76 SWAP2 SWAP1 PUSH2 0x11A JUMP JUMPDEST PUSH1 0x40 MLOAD DUP1 SWAP2 SUB SWAP1 RETURN JUMPDEST PUSH2 0x87 PUSH2 0xA9 JUMP JUMPDEST PUSH1 0x40 MLOAD PUSH2 0x95 SWAP3 SWAP2 SWAP1 PUSH2 0x133 JUMP JUMPDEST PUSH1 0x40 MLOAD DUP1 SWAP2 SUB SWAP1 RETURN JUMPDEST PUSH1 0x1 SLOAD DUP2 JUMP JUMPDEST PUSH0 SLOAD DUP2 JUMP JUMPDEST PUSH0 PUSH0 PUSH1 0x5 PUSH0 PUSH0 DUP3 DUP3 SLOAD PUSH2 0xBC SWAP2 SWAP1 PUSH2 0x187 JUMP JUMPDEST SWAP3 POP POP DUP2 SWAP1 SSTORE POP PUSH1 0x5 PUSH1 0x1 PUSH0 DUP3 DUP3 SLOAD PUSH2 0xD5 SWAP2 SWAP1 PUSH2 0x187 JUMP JUMPDEST SWAP3 POP POP DUP2 SWAP1 SSTORE POP PUSH1 0x1 SLOAD PUSH0 SLOAD PUSH2 0xEB SWAP2 SWAP1 PUSH2 0x1BA JUMP JUMPDEST SWAP2 POP PUSH1 0x1 SLOAD PUSH0 SLOAD PUSH2 0xFC SWAP2 SWAP1 PUSH2 0x187 JUMP JUMPDEST SWAP1 POP SWAP1 SWAP2 JUMP JUMPDEST PUSH0 DUP2 SWAP1 POP SWAP2 SWAP1 POP JUMP JUMPDEST PUSH2 0x114 DUP2 PUSH2 0x102 JUMP JUMPDEST DUP3 MSTORE POP POP JUMP JUMPDEST PUSH0 PUSH1 0x20 DUP3 ADD SWAP1 POP PUSH2 0x12D PUSH0 DUP4 ADD DUP5 PUSH2 0x10B JUMP JUMPDEST SWAP3 SWAP2 POP POP JUMP JUMPDEST PUSH0 PUSH1 0x40 DUP3 ADD SWAP1 POP PUSH2 0x146 PUSH0 DUP4 ADD DUP6 PUSH2 0x10B JUMP JUMPDEST PUSH2 0x153 PUSH1 0x20 DUP4 ADD DUP5 PUSH2 0x10B JUMP JUMPDEST SWAP4 SWAP3 POP POP POP JUMP JUMPDEST PUSH32 0x4E487B7100000000000000000000000000000000000000000000000000000000 PUSH0 MSTORE PUSH1 0x11 PUSH1 0x4 MSTORE PUSH1 0x24 PUSH0 REVERT JUMPDEST PUSH0 PUSH2 0x191 DUP3 PUSH2 0x102 JUMP JUMPDEST SWAP2 POP PUSH2 0x19C DUP4 PUSH2 0x102 JUMP JUMPDEST SWAP3 POP DUP3 DUP3 ADD SWAP1 POP DUP1 DUP3 GT ISZERO PUSH2 0x1B4 JUMPI PUSH2 0x1B3 PUSH2 0x15A JUMP JUMPDEST JUMPDEST SWAP3 SWAP2 POP POP JUMP JUMPDEST PUSH0 PUSH2 0x1C4 DUP3 PUSH2 0x102 JUMP JUMPDEST SWAP2 POP PUSH2 0x1CF DUP4 PUSH2 0x102 JUMP JUMPDEST SWAP3 POP DUP3 DUP3 MUL PUSH2 0x1DD DUP2 PUSH2 0x102 JUMP JUMPDEST SWAP2 POP DUP3 DUP3 DIV DUP5 EQ DUP4 ISZERO OR PUSH2 0x1F4 JUMPI PUSH2 0x1F3 PUSH2 0x15A JUMP JUMPDEST JUMPDEST POP SWAP3 SWAP2 POP POP JUMP INVALID LOG2 PUSH5 0x6970667358 0x22 SLT KECCAK256 0xF DUP6 0xD9 NUMBER CALL MUL SIGNEXTEND MULMOD PUSH26 0x6E20291DCB3FF51B7970456D9278A6CB0F783499B7005864736F PUSH13 0x634300081C0033000000000000 "
		},
		"gasEstimates": {
			"creation": {
				"codeDepositCost": "112200",
				"executionCost": "44368",
				"totalCost": "156568"
			},
			"external": {
				"getResult()": "infinite",
				"num1()": "2424",
				"num2()": "2403"
			}
		},
		"methodIdentifiers": {
			"getResult()": "de292789",
			"num1()": "3b9eac4b",
			"num2()": "15d4266c"
		}
	},
	"abi": [
		{
			"inputs": [],
			"name": "getResult",
			"outputs": [
				{
					"internalType": "uint256",
					"name": "product",
					"type": "uint256"
				},
				{
					"internalType": "uint256",
					"name": "total",
					"type": "uint256"
				}
			],
			"stateMutability": "nonpayable",
			"type": "function"
		},
		{
			"inputs": [],
			"name": "num1",
			"outputs": [
				{
					"internalType": "uint256",
					"name": "",
					"type": "uint256"
				}
			],
			"stateMutability": "view",
			"type": "function"
		},
		{
			"inputs": [],
			"name": "num2",
			"outputs": [
				{
					"internalType": "uint256",
					"name": "",
					"type": "uint256"
				}
			],
			"stateMutability": "view",
			"type": "function"
		}
	]
}